:020000040000FA
:0600000079EF06F012008A
:0608000079EF06F0120082
:020806001200DE
:0408080015EF04F0F4
:0408180015EF04F0E4
:04081C0001000E0DBC
:0A08200000000001000000010000CC
:06082A00DACFE4FFE2CF8B
:10083000DAFFE9CFE4FFEACFE4FFF6CFE4FFF7CF3A
:10084000E4FFF5CFE4FFF3CFE4FFF4CFE4FFFACF0A
:10085000E4FF00EE00F0020EE80403E3EECFE4FF55
:10086000FBD700EE02F0020EE80403E3EECFE4FF54
:10087000FBD7E652F29E9E9A48D883D89D8AF28C86
:10088000F28EE55200EE03F0020EE80403E3E5CF3A
:10089000EDFFFBD700EE01F0020EE80403E3E5CF25
:1008A000EDFFFBD7E5CFFAFFE5CFF4FFE5CFF3FF90
:1008B000E5CFF5FFE5CFF7FFE5CFF6FFE5CFEAFFA0
:1008C000E5CFE9FFE5CFDAFF1100C16AB46A806ABB
:1008D000926A816AF00E936E826A946A948C948E06
:1008E000D08E9F8A9E9A9D8AF28EF28C808A120008
:1008F000ECDFB00EE66E040EE66E7C0EE66ED7EC14
:1009000005F0B886F28EF28CFFD7D9CFE6FFE1CFA3
:10091000D9FF020EE126DE6ADD6A807A9EAAFED742
:100920001CEC06F0E66EDECFE9FFDDCFEAFF000E3D
:10093000E926010EEA22E552E750EF6EDF2A010EAA
:1009400001E3DB2ADECF02F0DDCF03F0D8900350C5
:1009500004E6050E025C000E0358DFE3DECFE9FF7C
:10096000DDCFEAFF000EE926010EEA22EF6A020E51
:10097000E15C02E2E16AE552E16EE552E7CFD9FFC0
:100980001200D9CFE6FFE1CFD9FF020EE126DE68E3
:10099000DD68DF2A010E01E3DB2ADECFE9FFDDCFD0
:1009A000EAFF000EE926010EEA22EF50E66E52EC55
:1009B00006F0E552ACA2FED7DECFE9FFDDCFEAFFBD
:1009C000000EE926010EEA22EF50E3E1020EE15C9F
:1009D00002E2E16AE552E16EE552E7CFD9FF12008B
:1009E000D9CFE6FFE1CFD9FF340EE126D9CFE9FF19
:1009F000DACFEAFF480EEE6E610EEE6E6C0EEE6E12
:100A0000EE6E6F0EEE6E2C0EEE6E200EEE6E640E1F
:100A1000EE6E690EEE6E740EEE6E200EEE6E690EC8
:100A2000EE6E730EEE6E200EEE6E650EEE6EEE6ED8
:100A30006E0EEE6E200EEE6E740EEE6E650EEE6EA7
:100A4000730EEE6E740EEE6EEE6AEE6AEE6AEE6A8B
:100A5000EE6AEE6AEE6AEE6AEE6AEE6AEE6AEE6AD6
:100A6000EE6AEE6AEE6AEE6AEE6AEE6AEE6AEE6AC6
:100A7000EE6AEE6AEE6AEE6AEE6AEE6AEE6AEE6AB6
:100A8000320EDB6A330EDB6AD9CF02F0DACF03F025
:100A9000320EDB50D924E96E330EDB50DA20EA6ED9
:100AA000EF50E66E52EC06F0E552320EDB2A330EC2
:100AB00001E3DB2AACA2FED7D9CF02F0DACF03F0F4
:100AC000320EDB50D924E96E330EDB50DA20EA6EA9
:100AD000EF50DAE1E6683BEC06F0E552E6683BEC05
:100AE00006F0E552E6683BEC06F0E552E6683BECC2
:100AF00006F0E552E6683BEC06F0E552340EE15CA8
:100B000002E2E16AE552E16EE552E7CFD9FF120059
:100B10001C0EF66E080EF76E000EF86E000109004E
:100B2000F550656F0900F550666F03E1656701D008
:100B30003DD00900F550606F0900F550616F090064
:100B4000F550626F09000900F550E96E0900F55093
:100B5000EA6E090009000900F550636F0900F550BD
:100B6000646F09000900F6CF67F0F7CF68F0F8CF9F
:100B700069F060C0F6FF61C0F7FF62C0F8FF0001D6
:100B8000635302E1645307E00900F550EE6E63071A
:100B9000F8E26407F9D767C0F6FF68C0F7FF69C0DD
:0E0BA000F8FF00016507000E665BBFD712006C
:020BAE00D9CF9D
:100BB000E6FFDACFE6FFE1CFD9FFE2CFDAFFAC6A9A
:100BC000AB6AFD0EDBB0AC88DBA202D0AC8CAB8C88
:100BD000DBB4AC8EDBA602D0AB8801D0AB8ADBB82D
:100BE000AC849E98DBBAAB86DBAC02D09D8A01D088
:100BF0009D9A9E9ADBAE02D09D8801D09D98FB0EF7
:100C0000DB50AF6EFB0EFC0EDBCF03F003C002F037
:100C1000036A0250B06EAC8AAB8E949C948EAC503A
:100C2000100B04E0AC50800B01E1948CE552E5CF51
:080C3000DAFFE7CFD9FF120043
:080C3800D9CFE6FFDACFE6FF99
:100C4000E1CFD9FFE2CFDAFFE652F20E00016C17D6
:100C5000ABAC03D06C91ABB06C81ABB46C85ABB278
:100C60006C87AE50DF6EDF50E552E552E5CFDAFF1C
:060C7000E7CFD9FF1200DE
:0A0C7600FF0EE350056EEF0E01D0F3
:100C8000F30EE76EE72E42EF06F00C0E046EE76AF5
:100C9000E72E48EF06F0042E47EF06F0052E40EF52
:040CA00006F0120048
:0C0CA400D9CFE6FFDACFE6FFE1CFD9FFA1
:100CB000E2CFDAFFACAC04D0AC9000016CB3AC80F6
:100CC000FD0EDB50AD6EE552E5CFDAFFE7CFD9FF81
:020CD000120010
:0E0CD200000EF36E00EE00F0040E01D81200CA
:100CE000EA6002D0EE6AFCD7F350E9601200EE6AC7
:020CF000FCD72F
:0E0CF20013EE00F023EE00F0F86A019C88EC8F
:0E0D000005F003EC04F078EC04F0FBD71200D1
:020D0E0048613A
:100D10006C6C6F2C20526173706265727279205016
:100D2000690D0A0000000000000000000000000043
:100D300000000000000000000000000000000000B3
:100D400000000000000000000000000000000000A3
:100D50000000000000000000000000000000000093
:100D60000000000000000000000000000000000083
:100D70000000000000000000000000000000000073
:100D80000000000000000000000000000000000063
:100D90000000000000000000000000000000000053
:100DA0000000000000000000000000000000000043
:100DB0000000000000000000000000000000000033
:100DC0000000000000000000000000000000000023
:100DD0000000000000000000000000000000000013
:100DE0000000000000000000000000000000000003
:100DF00000000000000000000000000000000000F3
:0E0E00000000000000000000000000000000E4
:00000001FF
