:020000040000FA
:060000007BEF06F0120088
:060800007BEF06F0120080
:020806001200DE
:0408080015EF04F0F4
:01080C0000EB
:0408180015EF04F0E4
:04081C0001000C08C3
:0A0820000000D501000001000000F7
:06082A00DACFE4FFE2CF8B
:10083000DAFFE9CFE4FFEACFE4FFF6CFE4FFF7CF3A
:10084000E4FFF5CFE4FFF3CFE4FFF4CFE4FFFACF0A
:10085000E4FF00EE00F0020EE80403E3EECFE4FF55
:10086000FBD700EE02F0020EE80403E3EECFE4FF54
:10087000FBD7E652F29E9E9A4AD885D89D8AF28C82
:10088000F28EE55200EE03F0020EE80403E3E5CF3A
:10089000EDFFFBD700EE01F0020EE80403E3E5CF25
:1008A000EDFFFBD7E5CFFAFFE5CFF4FFE5CFF3FF90
:1008B000E5CFF5FFE5CFF7FFE5CFF6FFE5CFEAFFA0
:1008C000E5CFE9FFE5CFDAFF1100C16AB46A806ABB
:1008D000926A816AF00E936E826A946A948C948E06
:1008E000D08E9F8A9E9A9D8AF28EF28C808A808812
:1008F00080861200EADFB00EE66E040EE66E7C0E15
:10090000E66ED9EC05F0B886F28EF28CFFD7D9CF1F
:10091000E6FFE1CFD9FF020EE126DE6ADD6A807ACA
:1009200080781EEC06F0E66EDECFE9FFDDCFEAFF51
:10093000020EE926010EEA22E552E750EF6EDF2AA9
:10094000010E01E3DB2A8076DECF02F0DDCF03F07B
:10095000D890035004E6050E025C000E0358DFE356
:10096000DECFE9FFDDCFEAFF020EE926010EEA2223
:10097000EF6A020EE15C02E2E16AE552E16EE552E5
:10098000E7CFD9FF1200D9CFE6FFE1CFD9FF020EA2
:10099000E126DE68DD68DF2A010E01E3DB2ADECF17
:1009A000E9FFDDCFEAFF020EE926010EEA22EF5051
:1009B000E66E54EC06F0E552ACA2FED7DECFE9FFBE
:1009C000DDCFEAFF020EE926010EEA22EF50E3E155
:1009D000020EE15C02E2E16AE552E16EE552E7CF28
:1009E000D9FF1200D9CFE6FFE1CFD9FF340EE126BF
:1009F000D9CFE9FFDACFEAFF480EEE6E610EEE6E58
:100A00006C0EEE6EEE6E6F0EEE6E2C0EEE6E200E17
:100A1000EE6E640EEE6E690EEE6E740EEE6E200ECD
:100A2000EE6E690EEE6E730EEE6E200EEE6E650EBD
:100A3000EE6EEE6E6E0EEE6E200EEE6E740EEE6EBE
:100A4000650EEE6E730EEE6E740EEE6EEE6AEE6A6C
:100A5000EE6AEE6AEE6AEE6AEE6AEE6AEE6AEE6AD6
:100A6000EE6AEE6AEE6AEE6AEE6AEE6AEE6AEE6AC6
:100A7000EE6AEE6AEE6AEE6AEE6AEE6AEE6AEE6AB6
:100A8000EE6AEE6A320EDB6A330EDB6AD9CF02F011
:100A9000DACF03F0320EDB50D924E96E330EDB508F
:100AA000DA20EA6EEF50E66E54EC06F0E552320EB4
:100AB000DB2A330E01E3DB2AACA2FED7D9CF02F04A
:100AC000DACF03F0320EDB50D924E96E330EDB505F
:100AD000DA20EA6EEF50DAE1E6683DEC06F0E55226
:100AE000E6683DEC06F0E552E6683DEC06F0E552BE
:100AF000E6683DEC06F0E552E6683DEC06F0E552AE
:100B0000340EE15C02E2E16AE552E16EE552E7CFC4
:040B1000D9FF1200F7
:0C0B14001C0EF66E080EF76E000EF86E58
:100B200001010900F550CF6F0900F550D06F03E1C6
:100B3000CF6701D03DD00900F550CA6F0900F550CC
:100B4000CB6F0900F550CC6F09000900F550E96E34
:100B50000900F550EA6E090009000900F550CD6F53
:100B60000900F550CE6F09000900F6CFD1F1F7CF9B
:100B7000D2F1F8CFD3F1CAC1F6FFCBC1F7FFCCC198
:100B8000F8FF0101CD5302E1CE5307E00900F55013
:100B9000EE6ECD07F8E2CE07F9D7D1C1F6FFD2C18C
:100BA000F7FFD3C1F8FF0101CF07000ED05BBFD71D
:020BB000120031
:0E0BB200D9CFE6FFDACFE6FFE1CFD9FFE2CFE1
:100BC000DAFFAC6AAB6AFD0EDBB0AC88DBA202D008
:100BD000AC8CAB8CDBB4AC8EDBA602D0AB8801D086
:100BE000AB8ADBB8AC849E98DBBAAB86DBAC02D0B8
:100BF0009D8A01D09D9A9E9ADBAE02D09D8801D03D
:100C00009D98FB0EDB50AF6EFB0EFC0EDBCF03F0AE
:100C100003C002F0036A0250B06EAC8AAB8E949CA3
:100C2000948EAC50100B04E0AC50800B01E1948C1E
:0C0C3000E552E5CFDAFFE7CFD9FF120054
:040C3C00D9CFE6FF27
:100C4000DACFE6FFE1CFD9FFE2CFDAFFE652F20ECC
:100C50000101D417ABAC03D0D491ABB0D481ABB409
:100C6000D485ABB2D487AE50DF6EDF50E552E5528B
:0A0C7000E5CFDAFFE7CFD9FF12004D
:060C7A00FF0EE350056EC1
:100C8000EF0E01D0F30EE76EE72E44EF06F00C0EE8
:100C9000046EE76AE72E4AEF06F0042E49EF06F0ED
:080CA000052E42EF06F01200E0
:080CA800D9CFE6FFDACFE6FF29
:100CB000E1CFD9FFE2CFDAFFACAC04D0AC900101B8
:100CC000D4B3AC80FD0EDB50AD6EE552E5CFDAFF5C
:060CD000E7CFD9FF12007E
:0A0CD600000EF36E00EE00F0040EB5
:100CE00001D81200EA6002D0EE6AFCD7F350E96046
:060CF0001200EE6AFCD7C1
:0A0CF60013EE00F023EE00F0F86AA0
:100D0000019C8AEC05F003EC04F07AEC04F0FBD7CC
:020D10001200CF
:00000001FF
