:020000040000FA
:06000000FEEF07F0120004
:0400180034EF06F0CB
:0408000034EF06F0DB
:0C080400010034100000F00100000100B1
:020810000000E6
:0E081200FF0EE350E84E1200000000D000D0B0
:0808200000D0E82EFAD7120007
:020828001200BC
:06082A000C0EE66E0CEC62
:1008300008F0E552030EE66E09EC04F0E552000004
:100840000000000000000000000000000000120096
:10085000060EE66E0CEC08F0E552010EE66E09ECB1
:1008600004F0E5520000000000000000000000005D
:1008700012000C0EE66E0CEC08F0E552030EE66E6C
:1008800009EC04F0E5520000000000000000000048
:1008900000001200C16AB46A806A926A816AF00E2E
:1008A000936E826A946A948C948ED08E9F8AF29E04
:1008B000F29C808A808880861200D9CFE6FFE1CF43
:1008C000D9FF040EE126DE6ADD6ADE6ADD6ADECF6C
:1008D00000F0DDCF01F0020EDBCF02F0030EDBCF24
:1008E00003F001500318E8AE02D0033404D00250E4
:1008F000005C035001581DE2DECF00F0DDCF01F0B7
:10090000050E0102F3CF01F00002F3CF00F0F45026
:100910000126CA0E0026010E012200C0E6FF01C01A
:10092000E6FF75D8E552E552DF2A010ED0E3DB2A57
:10093000CED7040EE15C02E2E16AE552E16EE552D7
:10094000E7CFD9FF1200A6DF64EC07F0B00EE66E29
:10095000040EE66E3C0EE66ED5EC06F0E552E5526E
:10096000E552B88614D9FED7D9CFE6FFE1CFD9FF3B
:10097000030EE126DE6ADD6A87EC07F0E76E020E01
:10098000E7CFDBFFDECFE9FFDDCFEAFF020EE9268E
:10099000010EEA22020EDBCFEFFFDF2A010E01E398
:1009A000DB2A020EDB500A08E7E1030EE15C02E2FB
:1009B000E16AE552E16EE552E7CFD9FF1200D9CFE7
:1009C000E6FFE1CFD9FF020EE126DE68DD68DF2A0F
:1009D000010E01E3DB2A020EE66E010EE66E40EC2C
:1009E00007F0E552E552DECFE9FFDDCFEAFF020E68
:1009F000E926010EEA22EF50EAE1020EE15C02E292
:100A0000E16AE552E16EE552E7CFD9FF1200D9CF96
:100A1000E6FFE1CFD9FF640EE126D950FD0FE66E67
:100A2000FF0EDA20E66E1AEC07F0E552E552640E8E
:100A3000E66EE66AE66AD9CFE6FFDACFE6FFA6EC15
:100A400007F0006E050EE15E0050640EE15C02E20C
:100A5000E16AE552E16EE552E7CFD9FF1200D9CF46
:100A6000E6FFE1CFD9FF340EE126D9CFE9FFDACF97
:100A7000EAFF480EEE6E610EEE6E6C0EEE6EEE6EDE
:100A80006F0EEE6E2C0EEE6E200EEE6E640EEE6E9F
:100A9000690EEE6E740EEE6E200EEE6E690EEE6E48
:100AA000730EEE6E200EEE6E650EEE6EEE6E6E0E38
:100AB000EE6E200EEE6E740EEE6E650EEE6E730E22
:100AC000EE6E740EEE6EEE6AEE6AEE6AEE6AEE6A34
:100AD000EE6AEE6AEE6AEE6AEE6AEE6AEE6AEE6A56
:100AE000EE6AEE6AEE6AEE6AEE6AEE6AEE6AEE6A46
:100AF000EE6AEE6AEE6AEE6AEE6AEE6AEE6A320E4E
:100B0000DB6A330EDB6AD9CF00F0DACF01F0320EA8
:100B1000DB50D924E96E330EDB50DA20EA6EEF5059
:100B2000E66ED7EC07F0E552320EDB2A330E01E316
:100B3000DB2AACA2FED7D9CF00F0DACF01F0320E1B
:100B4000DB50D924E96E330EDB50DA20EA6EEF5029
:100B5000DAE1E668C0EC07F0E552E668C0EC07F0C1
:100B6000E552E668C0EC07F0E552E668C0EC07F035
:100B7000E552E668C0EC07F0E552340EE15C02E2B3
:100B8000E16AE552E16EE552E7CFD9FF1200D9CF15
:100B9000E6FFE1CFD9FF670EE126030EF36E640E88
:100BA000F3CFDBFF650EDB6A240EDF6EDE52300E04
:100BB000DD6E310EF36E020EF3CFDBFF640EDBCF82
:100BC00000F0650EDBCF01F0D890015004E6640E12
:100BD000005C000E01583BE29EAAFED787EC07F0AE
:100BE000E76E660EE7CFDBFFD9CF00F0DACF01F07A
:100BF000640EDB50D924E96E650EDB50DA20EA6E14
:100C0000660EDBCFEFFFDB500A081BE1D9CFE6FF12
:100C1000DACFE6FF1AEC07F0E552E552640EE66E15
:100C2000E66AE66AD9CFE6FFDACFE6FFA6EC07F080
:100C3000006E050EE15E0050640EDB6A650EDB6A35
:100C400006D0640EDB2A650EB9E3DB2AB7D7670E40
:100C5000E15C02E2E16AE552E16EE552E7CFD9FFDD
:020C6000120080
:0E0C6200FEEF07F01200DACFE4FFE2CFDAFF78
:100C7000E9CFE4FFEACFE4FFF6CFE4FFF7CFE4FFEC
:100C8000F5CFE4FFF3CFE4FFF4CFE4FFFACFE4FFC6
:100C900000EE04F0020EE80403E3EECFE4FFFBD71E
:100CA00000EE00F0040EE80403E3EECFE4FFFBD710
:100CB000E652F29E9E9AB4EC04F0DFEC04F09D8ABA
:100CC000F28CF28EE55200EE03F0040EE80403E32A
:100CD000E5CFEDFFFBD700EE05F0020EE80403E3DD
:100CE000E5CFEDFFFBD7E5CFFAFFE5CFF4FFE5CF8A
:100CF000F3FFE5CFF5FFE5CFF7FFE5CFF6FFE5CF53
:0C0D0000EAFFE5CFE9FFE5CFDAFF1100C4
:040D0C00040EF66E6D
:100D1000080EF76E000EF86E01010900F550E86F3D
:100D20000900F550E96F03E1E86701D03DD0090003
:100D3000F550E36F0900F550E46F0900F550E56FD9
:100D400009000900F550E96E0900F550EA6E090046
:100D500009000900F550E66F0900F550E76F09003A
:100D60000900F6CFEAF1F7CFEBF1F8CFECF1E3C1F0
:100D7000F6FFE4C1F7FFE5C1F8FF0101E65302E128
:100D8000E75307E00900F550EE6EE607F8E2E707E3
:100D9000F9D7EAC1F6FFEBC1F7FFECC1F8FF01019B
:0A0DA000E807000EE95BBFD7120060
:060DAA00D9CFE6FFDACF0D
:100DB000E6FFE1CFD9FFE2CFDAFFAC6AAB6AFD0E06
:100DC000DBB0AC88DBA202D0AC8CAB8CDBB4AC8EDD
:100DD000DBA602D0AB8801D0AB8ADBB8AC849E988E
:100DE000DBBAAB86DBAC02D09D8A01D09D9A9E9A7D
:100DF000DBAE02D09D8801D09D98FB0EDB50AF6E1C
:100E0000FB0EFC0EDBCF01F001C000F0016A0050C8
:100E1000B06EAC8AAB8E949C948EAC50100B04E0F8
:100E2000AC50800B01E1948CE552E5CFDAFFE7CFBF
:040E3000D9FF1200D4
:0C0E3400D9CFE6FFDACFE6FFE1CFD9FF0F
:100E4000E2CFDAFFACA2FED7FC0EDBCFE9FFFD0E4E
:100E5000DBCFEAFFEF50E66ED7EC07F0E552FC0E71
:100E6000DBCFE9FFDB2AFD0EDBCFEAFF01E3DB2A64
:100E7000EF50E8E1E552E5CFDAFFE7CFD9FF120006
:100E8000D9CFE6FFDACFE6FFE1CFD9FFE2CFDAFF35
:100E9000FC0EDBCFE9FFFD0EDBCFEAFFEF50E66E85
:100EA0006BEC07F0E552FC0EDBCFE9FFDB2AFD0E11
:100EB000DBCFEAFF01E3DB2AEF50EAE1E552E5CFC1
:080EC000DAFFE7CFD9FF1200B1
:080EC8000F01939881880F01CE
:100ED000938A818A12000101FF0EE3CFEDF1090E22
:100EE000EE6FD8900F0177EF07F00101ED330F019E
:100EF000D8A08198D8B0818815EC04F00101EE2FBC
:0E0F000075EF07F00F01818815EC04F0120068
:020F0E00D9CF39
:100F1000E6FFDACFE6FFE1CFD9FFE2CFDAFFE65214
:100F2000F20E0101EF17ABAC03D0EF91ABB0EF8144
:100F3000ABB4EF85ABB2EF87AE50DF6EDF50E5525A
:0C0F4000E552E5CFDAFFE7CFD9FF120041
:040F4C00FE0EE3CFE3
:100F5000E9FFFF0EE3CFEAFFE9CFF3FFEACFF4FFAB
:100F6000FB0EE35003E1FC0EE35009E0FB0EE30649
:100F700002E2FC0EE306FD0EE350EE6EF1D7120026
:100F8000FF0EE350076EEF0E01D0F30EE76EE72E73
:100F9000C7EF07F00C0E066EE76AE72ECDEF07F0FD
:0E0FA000062ECCEF07F0072EC5EF07F012006B
:020FAE00D9CF99
:100FB000E6FFDACFE6FFE1CFD9FFE2CFDAFFACAC54
:100FC00004D0AC900101EFB3AC80FD0EDB50AD6EF0
:0C0FD000E552E5CFDAFFE7CFD9FF1200B1
:040FDC00000EF36EA2
:100FE00000EE00F0040E01D81200EA6002D0EE6AB2
:0C0FF000FCD7F350E9601200EE6AFCD759
:040FFC0013EE00F000
:1010000023EE00F0F86A059C86EC06F014EC04F080
:08101000A3EC04F0FBD7120071
:08101800FF0EE350076E1B0EF2
:1010200000D001D0200EE76EE72EFED7072EFAD7AC
:0410300000D01200DA
:0110340000BB
:00000001FF
