:020000040000FA
:06000000E4EF2AF01200FB
:06080000E4EF2AF01200F3
:020806001200DE
:040808006DEF29F077
:03080C00000000E9
:040818006DEF29F067
:04081C0001000C08C3
:0A0820000000EF01000003000000DB
:06082A0024303124475088
:100830004747412C3038323733302C353035322E63
:10084000343839312C4E2C30303434322E34343666
:10085000312C452C312C372C34362E302C39362E79
:10086000303939393938343734313231312C4D2C33
:100870002C2C2C2A32610D0A002430312447504799
:1008800047412C3038323732372C353035322E3420
:100890003930312C4E2C30303434322E343438311F
:1008A0002C452C312C372C32342E302C39352E3827
:1008B000303030303330353137353738312C4D2CFE
:1008C0002C2C2C2A31320D0A002430312447504779
:1008D00047412C3038323732362C353035322E34D1
:1008E0003930342C4E2C30303434322E34343837C6
:1008F0002C452C312C372C31392E302C39352E38D3
:10090000303030303330353137353738312C4D2CAD
:100910002C2C2C2A31650D0A0024303124475047F5
:1009200047412C3038323732322C353035322E3484
:100930003931392C4E2C30303434322E343439396C
:100940002C452C312C372C31372E302C39352E3587
:100950003939393938343734313231312C4D2C2C46
:100960002C2C2A32640D0A0024303124475047478A
:10097000412C3038323732312C353035322E343943
:1009800032342C4E2C30303434322E343439372C2F
:10099000452C312C372C31382E302C39352E352C36
:1009A0004D2C2C2C2C2A32640D0A00243031244783
:1009B000504747412C3038323731392C35303532B9
:1009C0002E343933372C4E2C30303434322E3434EC
:1009D00038362C452C312C372C32322E302C3935F0
:1009E0002E33303030303330353137353738312CE5
:1009F0004D2C2C2C2C2A31300D0A00243031244768
:100A0000504747412C3038323731352C353035326C
:100A10002E343937342C4E2C30303434322E34349A
:100A200035342C452C312C372C32322E302C3935A4
:100A30002E302C4D2C2C2C2C2A32630D0A00243005
:100A4000312447504747412C3038323731342C3528
:100A50003035322E343938322C4E2C30303434325A
:100A60002E343435382C452C312C382C31392E305D
:100A70002C39352E302C4D2C2C2C2C2A32660D0A7C
:100A8000002430312447504747412C303832373129
:100A9000302C353035322E353031312C4E2C303033
:100AA0003434322E343437392C452C312C372C3118
:100AB000312E302C39342E3830303030333035311F
:100AC00037353738312C4D2C2C2C2C2A31660D0A19
:100AD000002430312447504747412C3038323730DA
:100AE000342C353035322E353032302C4E2C3030DF
:100AF0003434322E343534302C452C312C372C31D3
:100B0000312E302C39352E333030303033303531D2
:100B100037353738312C4D2C2C2C2C2A31390D0AF5
:100B2000002430312447504747412C303832373089
:100B3000312C353035322E353031392C4E2C303089
:100B40003434322E343537302C452C312C362C3180
:100B5000342E302C39352E30393939393834373450
:100B6000313231312C4D2C2C2C2C2A32350D0A00EF
:100B70002430312447504747412C30383237303009
:100B80002C353035322E353032312C4E2C3030343D
:100B900034322E343538352C452C312C362C31342A
:100BA0002E302C39352E3430303030313532353826
:100BB0003738392C4D2C2C2C2C2A32300D0A00249D
:100BC00030312447504747412C3038323635362CA7
:100BD000353035322E353034342C4E2C30303434E0
:100BE000322E343634362C452C312C342C31332EE5
:100BF000302C39362E302C4D2C2C2C2C2A32320D08
:100C00000A002430312447504747412C30383236CF
:100C100035352C353035322E353035312C4E2C30A3
:100C2000303434322E343636312C452C312C342CA1
:100C300031312E302C39362E303939393938343774
:100C400034313231312C4D2C2C2C2C2A32650D0AAA
:100C5000002430312447504747412C303832363554
:100C6000342C353035322E353035382C4E2C303052
:100C70003434322E343637332C452C312C332C314E
:100C8000302E302C39362E3139393939363934381D
:100C900032343231392C4D2C2C2C2C2A31310D0A86
:100CA000002430312447504747412C303832363504
:100CB000312C353035322E353038322C4E2C303008
:100CC0003434322E343731312C452C312C362C39FA
:100CD0002E302C39372E34303030303135323538F3
:100CE0003738392C4D2C2C2C2C2A31640D0A002439
:100CF00030312447504747412C3038323634392C74
:100D0000353035322E353039352C4E2C30303434A8
:100D1000322E343733302C452C312C362C392E30B2
:100D20002C39382E302C4D2C2C2C2C2A31370D0AF6
:100D3000002430312447504747412C303832363474
:100D4000362C353035322E353131302C4E2C30307A
:100D50003434322E343733372C452C312C342C3963
:100D60002E302C39382E302C4D2C2C2C2C2A313175
:100D70000D0A002430312447504747412C30383287
:100D80003634312C353035322E353131382C4E2C2D
:100D900030303434322E343734352C452C312C3825
:100DA0002C31332E302C39342E303939393938340E
:100DB0003734313231312C4D2C2C2C2C2A32630D0E
:100DC0000A002430312447504747412C303832360E
:100DD00033352C353035322E353134332C4E2C30E2
:100DE000303434322E343736342C452C312C392CD7
:100DF00031352E302C39332E3139393939363934B1
:100E00003832343231392C4D2C2C2C2C2A31300DE7
:100E10000A002430312447504747412C30383236BD
:100E200033342C353035322E353134382C4E2C308D
:100E3000303434322E343737302C452C312C392C89
:100E400031342E302C39332E34303030303135328D
:100E500035383738392C4D2C2C2C2C2A32390D0AA8
:100E6000002430312447504747412C303832363344
:100E7000302C353035322E353137342C4E2C303045
:100E80003434322E343737372C452C312C382C3132
:100E9000312E302C39332E3830303030333035313C
:100EA00037353738312C4D2C2C2C2C2A31620D0A39
:100EB000002430312447504747412C3038323632F5
:100EC000392C353035322E353138352C4E2C3030EA
:100ED0003434322E343737352C452C312C382C31E4
:100EE000322E302C39342E303939393938343734C0
:100EF000313231312C4D2C2C2C2C2A32340D0A005D
:100F00002430312447504747412C3038323632376D
:100F10002C353035322E353230322C4E2C303034A8
:100F200034322E343738352C452C312C382C313393
:100F30002E302C39342E3039393939383437343170
:100F40003231312C4D2C2C2C2C2A32380D0A002415
:100F500030312447504747412C3038323632332C19
:100F6000353035322E353234322C4E2C303034344C
:100F7000322E343830322C452C312C392C31342E51
:100F8000302C39302E303939393938343734313220
:100F900031312C4D2C2C2C2C2A32610D0A0024309E
:100FA000312447504747412C3038323631372C35C1
:100FB0003035322E353238302C4E2C3030343432FD
:100FC0002E343832392C452C312C382C31332E30FC
:100FD0002C39302E313939393936393438323432C6
:100FE00031392C4D2C2C2C2C2A31650D0A00243043
:100FF000312447504747412C3038323631352C3573
:101000003035322E353238352C4E2C3030343432A7
:101010002E343834372C452C312C382C31352E30A9
:101020002C39302E34303030303135323538373895
:10103000392C4D2C2C2C2C2A32300D0A0024303126
:101040002447504747412C3038323631322C353026
:1010500035322E353239342C4E2C30303434322E59
:10106000343838342C452C312C382C31362E302C59
:1010700039302E3539393939383437343132313124
:101080002C4D2C2C2C2C2A32620D0A0024303124B9
:1010900047504747412C3038323631302C353035C7
:1010A000322E353330332C4E2C30303434322E3413
:1010B0003931382C452C312C382C31352E302C3907
:1010C000312E302C4D2C2C2C2C2A32390D0A002498
:1010D00030312447504747412C3038323630392C94
:1010E000353035322E353330392C4E2C30303434C7
:1010F000322E343933342C452C312C382C31372EC8
:10110000302C39312E3330303030333035313735C3
:101110003738312C4D2C2C2C2C2A31660D0A00240A
:1011200030312447504747412C3038323630332C49
:10113000353035322E353336312C4E2C3030343478
:10114000322E353033312C452C312C392C31322E86
:10115000302C39332E353939393938343734313246
:1011600031312C4D2C2C2C2C2A32310D0A002430FC
:10117000312447504747412C3038323630322C35F5
:101180003035322E353337332C4E2C303034343228
:101190002E353034342C452C312C392C31332E3033
:1011A0002C39342E303939393938343734313231F9
:1011B000312C4D2C2C2C2C2A32320D0A00243031AB
:1011C0002447504747412C3038323630302C3530A8
:1011D00035322E353339382C4E2C30303434322ED3
:1011E000353037352C452C312C372C31362E302CE0
:1011F00039342E33303030303330353137353738BD
:10120000312C4D2C2C2C2C2A31380D0A0024303155
:101210002447504747412C3038323535372C35304C
:1012200035322E353431342C4E2C30303434322E8D
:10123000353132342C452C312C372C32362E302C93
:1012400039342E3830303030333035313735373867
:10125000312C4D2C2C2C2C2A31370D0A0024303106
:101260002447504747412C3038323535352C3530FE
:1012700035322E353430322C4E2C30303434322E40
:10128000353135382C452C312C362C33342E302C3E
:1012900039352E393030303031353235383738390C
:1012A0002C4D2C2C2C2C2A32640D0A002430312495
:1012B00047504747412C3038323535332C3530359F
:1012C000322E353339372C4E2C30303434322E35E3
:1012D0003138362C452C312C362C33352E302C39E8
:1012E000362E3830303030333035313735373831CD
:1012F0002C4D2C2C2C2C2A31360D0A002430312474
:1013000047504747412C3038323535302C35303551
:10131000322E353430312C4E2C30303434322E35A0
:101320003231312C452C312C362C34302E302C39A6
:10133000362E352C4D2C2C2C2C2A32340D0A002420
:1013400030312447504747412C3038323534382C1F
:10135000353035322E353431322C4E2C3030343459
:10136000322E353231362C452C312C352C34382E5A
:10137000302C39362E363939393936393438323419
:101380003231392C4D2C2C2C2C2A31660D0A00249C
:1013900030312447504747412C3038323534372CD0
:1013A000353035322E353431342C4E2C3030343407
:1013B000322E353231322C452C312C352C35312E14
:1013C000302C39362E3539393939383437343132D1
:1013D00031312C4D2C2C2C2C2A32610D0A0024305A
:1013E000312447504747412C3038323534332C357F
:1013F0003035322E353433332C4E2C3030343432B9
:101400002E353138352C452C312C352C3130302EC1
:10141000302C39372E3330303030333035313735AA
:101420003738312C4D2C2C2C2C2A32330D0A002429
:1014300030312447504747412C3038323534322C34
:10144000353035322E353433322C4E2C3030343466
:10145000322E353137382C452C312C352C31303863
:101460002E302C39372E343030303031353235385B
:101470003738392C4D2C2C2C2C2A31380D0A0024CD
:1014800030312447504747412C3038323533382CDF
:10149000353035322E353432312C4E2C3030343418
:1014A000322E353132392C452C312C342C3230351A
:1014B0002E302C39382E3330303030333035313710
:1014C000353738312C4D2C2C2C2C2A32320D0A0079
:1014D0002430312447504747412C3038323533359A
:1014E0002C353035322E353431352C4E2C303034CD
:1014F00034322E353131342C452C312C342C3139C9
:10150000382E302C39382E383030303033303531B9
:1015100037353738312C4D2C2C2C2C2A32610D0AC2
:10152000002430312447504747412C30383235337E
:10153000322C353035322E353430332C4E2C303081
:101540003434322E353038322C452C312C342C3179
:1015500035372E302C39392E302C4D2C2C2C2C2A72
:1015600031350D0A002430312447504747412C3093
:1015700038323533302C353035322E353339372C3F
:101580004E2C30303434322E353035382C452C3119
:101590002C352C3133302E302C39392E302C4D2C2B
:1015A0002C2C2C2A31610D0A00243031244750475D
:1015B00047412C3038323532362C353035322E35E5
:1015C0003338362C4E2C30303434322E35303137DF
:1015D0002C452C312C352C38382E302C39392E30E6
:1015E0002C4D2C2C2C2C2A32340D0A002430312482
:1015F00047504747412C3038323532342C3530355E
:10160000322E353338332C4E2C30303434322E35A4
:101610003030362C452C312C352C36382E302C39A8
:10162000382E393030303031353235383738392C82
:101630004D2C2C2C2C2A32380D0A00243031244712
:10164000504747412C3038323532322C3530353224
:101650002E353337382C4E2C30303434322E34394A
:1016600038392C452C312C352C35312E302C39384D
:101670002E393030303031353235383738392C4D1D
:101680002C2C2C2C2A32660D0A0024303124475091
:101690004747412C3038323531372C353035322EF2
:1016A000353334382C4E2C30303434322E343935F6
:1016B000322C452C312C342C32332E302C39392E0F
:1016C000302C4D2C2C2C2C2A32640D0A0024303165
:1016D0002447504747412C3038323531362C35308D
:1016E00035322E353334322C4E2C30303434322EC9
:1016F000343934332C452C312C342C31392E302CC8
:1017000039392E302C4D2C2C2C2C2A32660D0A0007
:101710002430312447504747412C3038323531345A
:101720002C353035322E353332392C4E2C30303486
:1017300034322E343932342C452C312C342C313384
:101740002E302C39392E302C4D2C2C2C2C2A326258
:101750000D0A002430312447504747412C3038329D
:101760003531302C353035322E353238382C4E2C40
:1017700030303434322E343838352C452C312C3539
:101780002C362E302C39382E39303030303135323D
:1017900035383738392C4D2C2C2C2C2A31660D0A33
:1017A000002430312447504747412C3038323530FF
:1017B000382C353035322E353237302C4E2C3030F7
:1017C0003434322E343836342C452C312C342C34ED
:1017D0002E302C39382E39303030303135323538E2
:1017E0003738392C4D2C2C2C2C2A31640D0A00242E
:1017F00030312447504747412C3038323530322C75
:10180000353035322E353231352C4E2C30303434A3
:10181000322E343832372C452C312C392C362E30A0
:101820002C39382E35393939393834373431323169
:10183000312C4D2C2C2C2C2A31310D0A0024303126
:101840002447504747412C3038323435392C353015
:1018500035322E353230312C4E2C30303434322E5D
:10186000343739382C452C312C392C372E302C3943
:10187000382E303939393938343734313231312C26
:101880004D2C2C2C2C2A31340D0A002430312447C5
:10189000504747412C3038323435342C35303532CE
:1018A0002E353135332C4E2C30303434322E343703
:1018B00036332C452C312C382C31302E302C393805
:1018C0002E352C4D2C2C2C2C2A32370D0A0024308E
:1018D000312447504747412C3038323435302C358D
:1018E0003035322E353133332C4E2C3030343432C7
:1018F0002E343730342C452C312C382C31302E30CE
:101900002C39372E35393939393834373431323189
:10191000312C4D2C2C2C2C2A32370D0A002430313E
:101920002447504747412C3038323434352C353039
:1019300035322E353039372C4E2C30303434322E6F
:10194000343635312C452C312C372C31352E302C7A
:1019500039332E3830303030333035313735373851
:10196000312C4D2C2C2C2C2A31390D0A00243031ED
:101970002447504747412C3038323434322C3530EC
:1019800035322E353038312C4E2C30303434322E26
:10199000343631392C452C312C372C31362E302C25
:1019A00039332E36393939393639343832343231DF
:1019B000392C4D2C2C2C2C2A31630D0A002430316B
:1019C0002447504747412C3038323434312C35309D
:1019D00035322E353037362C4E2C30303434322ED2
:1019E000343630372C452C312C372C31362E302CD8
:1019F00039332E352C4D2C2C2C2C2A32340D0A0048
:101A00002430312447504747412C30383234333664
:101A10002C353035322E353037332C4E2C30303497
:101A200034322E343532392C452C312C31312C3195
:101A3000382E302C39332E3330303030333035318E
:101A400037353738312C4D2C2C2C2C2A32610D0A8D
:101A5000002430312447504747412C30383234334A
:101A6000342C353035322E353037312C4E2C303049
:101A70003434322E343439332C452C312C31312C42
:101A800031392E302C39322E34303030303135323D
:101A900035383738392C4D2C2C2C2C2A31620D0A34
:101AA000002430312447504747412C3038323433FA
:101AB000322C353035322E353036372C4E2C3030F6
:101AC0003434322E343437312C452C312C31312CF6
:101AD00031362E302C39322E3039393939383437C5
:101AE00034313231312C4D2C2C2C2C2A31630D0AFF
:101AF000002430312447504747412C3038323432AB
:101B0000382C353035322E353034352C4E2C3030A3
:101B10003434322E343437322C452C312C31312CA4
:101B2000372E302C39302E3830303030333035319C
:101B300037353738312C4D2C2C2C2C2A31390D0AC5
:101B4000002430312447504747412C30383234325A
:101B5000352C353035322E353032312C4E2C30305C
:101B60003434322E343439362C452C312C31312C4E
:101B7000362E302C39302E3539393939383437341E
:101B8000313231312C4D2C2C2C2C2A32370D0A00BD
:101B90002430312447504747412C303832343230DA
:101BA0002C353035322E343939372C4E2C303034F8
:101BB00034322E343438322C452C312C31312C3601
:101BC0002E302C38392E352C4D2C2C2C2C2A3236FC
:101BD0000D0A002430312447504747412C30383219
:101BE0003431322C353035322E343937312C4E2CBD
:101BF00030303434322E343435342C452C312C34BE
:101C00002C31312E302C38392E352C4D2C2C2C2CBF
:101C10002A32360D0A002430312447504747412CE0
:101C20003038323431302C353035322E343935328B
:101C30002C4E2C30303434322E343435382C452C64
:101C4000312C332C31302E302C39302E393030308D
:101C50003031353235383738392C4D2C2C2C2C2A54
:101C600032360D0A002430312447504747412C308A
:101C700038323430382C353035322E343934302C3B
:101C80004E2C30303434322E343435362C452C3111
:101C90002C352C392E302C39302E30393939393811
:101CA000343734313231312C4D2C2C2C2C2A313418
:101CB0000D0A002430312447504747412C30383238
:101CC0003430332C353035322E343932302C4E2CE2
:101CD00030303434322E343436312C452C312C38DB
:101CE0002C372E302C39312E3139393939363934B7
:101CF0003832343231392C4D2C2C2C2C2A32640DB4
:101D00000A002430312447504747412C30383234C0
:101D100030322C353035322E343931382C4E2C308F
:101D2000303434322E343436312C452C312C382C8E
:101D3000362E302C39312E3830303030333035318A
:101D400037353738312C4D2C2C2C2C2A32620D0A89
:101D5000002430312447504747412C303832333546
:101D6000372C353035322E343932372C4E2C30303A
:101D70003434322E343438322C452C312C392C3733
:101D80002E302C39342E3430303030313532353835
:101D90003738392C4D2C2C2C2C2A31320D0A0024AA
:101DA00030312447504747412C3038323335332CBB
:101DB000353035322E343932372C4E2C30303434E5
:101DC000322E343533342C452C312C382C382E30EF
:101DD0002C39362E383030303033303531373537D6
:101DE00038312C4D2C2C2C2C2A32630D0A00243037
:101DF000312447504747412C3038323335302C3569
:101E00003035322E343932372C4E2C303034343297
:101E10002E343537362C452C312C362C392E302C9F
:101E200039362E3830303030333035313735373879
:101E3000312C4D2C2C2C2C2A32360D0A002430311A
:101E40002447504747412C3038323334362C353014
:101E500035322E343933352C4E2C30303434322E4A
:101E6000343635302C452C312C372C31322E302C59
:101E700039322E352C4D2C2C2C2C2A32630D0A0095
:101E80002430312447504747412C303832333431E5
:101E90002C353035322E343933302C4E2C30303412
:101EA00034322E343730352C452C312C362C323010
:101EB0002E302C37342E30393939393834373431E3
:101EC0003231312C4D2C2C2C2C2A32650D0A002459
:101ED00030312447504747412C3038323333392C86
:101EE000353035322E343931392C4E2C30303434B3
:101EF000322E343730322C452C312C362C32312EC8
:101F0000302C37342E30393939393834373431328E
:101F100031312C4D2C2C2C2C2A32630D0A0024300C
:101F2000312447504747412C3038323333382C3531
:101F30003035322E343931302C4E2C30303434326E
:101F40002E343730312C452C312C362C32322E3079
:101F50002C37342E3039393939383437343132313D
:101F6000312C4D2C2C2C2C2A32340D0A00243031EB
:101F70002447504747412C3038323333332C3530E7
:101F800035322E343836382C4E2C30303434322E14
:101F9000343730332C452C312C372C31392E302C22
:101FA00037332E39303030303135323538373839F3
:101FB0002C4D2C2C2C2C2A32350D0A0024303124A7
:101FC00047504747412C3038323333302C35303589
:101FD000322E343834322C4E2C30303434322E34CD
:101FE0003733332C452C312C362C31392E302C37CD
:101FF000342E3330303030333035313735373831B7
:102000002C4D2C2C2C2C2A31370D0A002430312455
:1020100047504747412C3038323332372C35303532
:10202000322E343831322C4E2C30303434322E347F
:102030003736332C452C312C382C32342E302C377B
:10204000342E343030303031353235383738392C61
:102050004D2C2C2C2C2A32300D0A002430312447F0
:10206000504747412C3038323332332C35303532FB
:102070002E343735352C4E2C30303434322E343724
:1020800039322C452C312C362C32392E302C373429
:102090002E33303030303330353137353738312C1E
:1020A0004D2C2C2C2C2A31340D0A0024303124479D
:1020B000504747412C3038323332312C35303532AD
:1020C0002E343733342C4E2C30303434322E3438D6
:1020D00030372C452C312C362C33362E302C3734DF
:1020E0002E31393939393639343832343231392CA4
:1020F0004D2C2C2C2C2A31610D0A00243031244720
:10210000504747412C3038323331382C3530353256
:102110002E343730392C4E2C30303434322E343883
:1021200033312C452C312C362C33372E302C373490
:102130002E33303030303330353137353738312C7D
:102140004D2C2C2C2C2A31630D0A002430312447CD
:10215000504747412C3038323331332C353035320B
:102160002E343637372C4E2C30303434322E34382F
:1021700036352C452C312C362C32362E302C37343B
:102180002E352C4D2C2C2C2C2A32330D0A002430C9
:10219000312447504747412C3038323331312C35C8
:1021A0003035322E343636372C4E2C3030343432F3
:1021B0002E343837362C452C312C362C32302E30FC
:1021C0002C37342E352C4D2C2C2C2C2A32340D0A45
:1021D000002430312447504747412C3038323331C6
:1021E000302C353035322E343636322C4E2C3030C1
:1021F0003434322E343838312C452C312C362C31B5
:10220000362E302C37342E352C4D2C2C2C2C2A32BB
:10221000640D0A002430312447504747412C3038A0
:10222000323330352C353035322E343633352C4E72
:102230002C30303434322E343930322C452C312C81
:10224000362C31312E302C37342E36393939393657
:1022500039343832343231392C4D2C2C2C2C2A3153
:10226000610D0A002430312447504747412C303853
:10227000323330322C353035322E343632352C4E26
:102280002C30303434322E343930352C452C312C2E
:10229000372C31322E302C37342E3330303030332F
:1022A00030353137353738312C4D2C2C2C2C2A3108
:1022B000380D0A002430312447504747412C30382C
:1022C000323235392C353035322E343631362C4ECB
:1022D0002C30303434322E343932392C452C312CD8
:1022E000372C31362E302C37342E313939393936B6
:1022F00039343832343231392C4D2C2C2C2C2A31B3
:10230000620D0A002430312447504747412C3038B1
:10231000323235352C353035322E343631302C4E84
:102320002C30303434322E343938302C452C312C8A
:10233000352C33302E302C37342E34303030303191
:10234000353235383738392C4D2C2C2C2C2A323359
:102350000D0A002430312447504747412C30383291
:102360003235332C353035322E343539352C4E2C30
:1023700030303434322E343939372C452C312C3529
:102380002C32392E302C37342E3430303030313539
:102390003235383738392C4D2C2C2C2C2A32350D2F
:1023A0000A002430312447504747412C303832321C
:1023B00035312C353035322E343538302C4E2C30EA
:1023C000303434322E353031392C452C312C352CEB
:1023D00032392E302C37342E3430303030313532E3
:1023E00035383738392C4D2C2C2C2C2A32640D0AD8
:1023F000002430312447504747412C3038323234A2
:10240000372C353035322E343535352C4E2C303096
:102410003434322E353037382C452C312C352C3293
:10242000392E302C37342E3430303030313532358F
:10243000383738392C4D2C2C2C2C2A32350D0A00EB
:102440002430312447504747412C3038323234361B
:102450002C353035322E343535302C4E2C3030344E
:1024600034322E353039352C452C312C342C333048
:102470002E302C37342E352C4D2C2C2C2C2A323748
:102480000D0A002430312447504747412C30383260
:102490003234352C353035322E343534362C4E2C02
:1024A00030303434322E353132352C452C312C3409
:1024B0002C32362E302C37342E352C4D2C2C2C2C07
:1024C0002A32650D0A002430312447504747412CF9
:1024D0003038323234312C353035322E34353338D1
:1024E0002C4E2C30303434322E353139352C452CAD
:1024F000312C342C31372E302C37342E36393939B3
:10250000393639343832343231392C4D2C2C2C2C8C
:102510002A31360D0A002430312447504747412CD8
:102520003038323233392C353035322E343533347D
:102530002C4E2C30303434322E353232332C452C64
:10254000312C342C31342E302C37342E383030307E
:10255000303330353137353738312C4D2C2C2C2C4D
:102560002A31320D0A002430312447504747412C8C
:102570003038323233372C353035322E343532382C
:102580002C4E2C30303434322E353235302C452C14
:10259000312C342C31322E302C37342E3430303034
:1025A0003031353235383738392C4D2C2C2C2C2AFB
:1025B00032390D0A002430312447504747412C302E
:1025C00038323233342C353035322E343530382CE5
:1025D0004E2C30303434322E353237392C452C31B4
:1025E0002C362C392E302C37352E303939393938B4
:1025F000343734313231312C4D2C2C2C2C2A31668D
:102600000D0A002430312447504747412C303832DE
:102610003233312C353035322E343439382C4E2C7F
:1026200030303434322E353330352C452C312C3685
:102630002C392E302C37342E333030303033303587
:102640003137353738312C4D2C2C2C2C2A32640D57
:102650000A002430312447504747412C3038323269
:1026600033302C353035322E343439382C4E2C3032
:10267000303434322E353331332C452C312C372C39
:1026800031302E302C37342E31393939393639340E
:102690003832343231392C4D2C2C2C2C2A31340D3B
:1026A0000A002430312447504747412C3038323219
:1026B00032362C353035322E343531392C4E2C30E3
:1026C000303434322E353335352C452C312C372CE3
:1026D00031322E302C37342E3039393939383437BD
:1026E00034313231312C4D2C2C2C2C2A32390D0A1C
:1026F000002430312447504747412C3038323232A1
:10270000352C353035322E343532382C4E2C303095
:102710003434322E353337312C452C312C372C3193
:10272000332E302C37342E31393939393639343863
:1027300032343231392C4D2C2C2C2C2A31640D0A98
:10274000002430312447504747412C303832323250
:10275000332C353035322E343535342C4E2C303048
:102760003434322E353339382C452C312C352C313C
:10277000342E302C37332E3639393939363934380E
:1027800032343231392C4D2C2C2C2C2A31320D0A7A
:10279000002430312447504747412C303832323101
:1027A000392C353035322E343630392C4E2C3030F1
:1027B0003434322E353434342C452C312C382C31F1
:1027C000322E302C37312E363939393936393438C2
:1027D00032343231392C4D2C2C2C2C2A31660D0AF6
:1027E000002430312447504747412C3038323231B1
:1027F000382C353035322E343632382C4E2C3030A1
:102800003434322E353435342C452C312C362C31A1
:10281000342E302C37302E352C4D2C2C2C2C2A32AB
:10282000390D0A002430312447504747412C3038B5
:10283000323231312C353035322E343634312C4E63
:102840002C30303434322E353736382C452C312C60
:10285000352C31362E302C37322E39303030303165
:10286000353235383738392C4D2C2C2C2C2A323136
:102870000D0A002430312447504747412C3038326C
:102880003230392C353035322E343634312C4E2C12
:1028900030303434322E353737302C452C312C370C
:1028A0002C31372E302C37322E3930303030313514
:1028B0003235383738392C4D2C2C2C2C2A32320D0D
:1028C0000A002430312447504747412C30383232F7
:1028D00030362C353035322E343634302C4E2C30C8
:1028E000303434322E353737372C452C312C372CB9
:1028F00032302E302C37322E352C4D2C2C2C2C2ACD
:1029000032650D0A002430312447504747412C30AE
:1029100038323230352C353035322E343633382C8F
:102920004E2C30303434322E353738302C452C3163
:102930002C372C32342E302C37322E33303030308E
:102940003330353137353738312C4D2C2C2C2C2A5F
:1029500031330D0A002430312447504747412C3091
:1029600038323230312C353035322E343633362C45
:102970004E2C30303434322E353738312C452C3112
:102980002C352C33332E302C37332E31393939391D
:102990003639343832343231392C4D2C2C2C2C2A07
:1029A00031620D0A002430312447504747412C3012
:1029B00038323135392C353035322E343633362CE9
:1029C0004E2C30303434322E353738322C452C31C1
:1029D0002C352C32372E302C37332E3139393939CA
:1029E0003639343832343231392C4D2C2C2C2C2AB7
:1029F00031330D0A002430312447504747412C30F1
:102A000038323135382C353035322E343633362C99
:102A10004E2C30303434322E353738332C452C316F
:102A20002C352C32342E302C37332E34303030309D
:102A300031353235383738392C4D2C2C2C2C2A3264
:102A4000370D0A002430312447504747412C303895
:102A5000323135342C353035322E343633392C4E34
:102A60002C30303434322E353738392C452C312C3B
:102A7000352C31342E302C37342E33303030303347
:102A800030353137353738312C4D2C2C2C2C2A3120
:102A9000620D0A002430312447504747412C30381A
:102AA000323135332C353035322E343634312C4EEC
:102AB0002C30303434322E353739302C452C312CF3
:102AC000352C31322E302C37342E343030303031FA
:102AD000353235383738392C4D2C2C2C2C2A326392
:102AE0000D0A002430312447504747412C303832FA
:102AF0003135302C353035322E343634372C4E2C9F
:102B000030303434322E353739332C452C312C3596
:102B10002C31302E302C37352E3039393939383484
:102B20003734313231312C4D2C2C2C2C2A32630D80
:102B30000A002430312447504747412C3038323185
:102B400034372C353035322E343636362C4E2C3048
:102B5000303434322E353830302C452C312C372C53
:102B6000372E302C37362E302C4D2C2C2C2C2A3155
:102B7000370D0A002430312447504747412C303864
:102B8000323134352C353035322E343639342C4E02
:102B90002C30303434322E353831332C452C312C16
:102BA000362C362E302C37362E3330303030333012
:102BB000353137353738312C4D2C2C2C2C2A3232EC
:102BC0000D0A002430312447504747412C30383219
:102BD0003134332C353035322E343639382C4E2CB6
:102BE00030303434322E353831342C452C312C37BA
:102BF0002C372E302C37362E3430303030313532C1
:102C000035383738392C4D2C2C2C2C2A31650D0AAF
:102C1000002430312447504747412C30383231337B
:102C2000392C353035322E343639392C4E2C303063
:102C30003434322E353831342C452C312C362C3767
:102C40002E302C37362E3430303030313532353866
:102C50003738392C4D2C2C2C2C2A31330D0A0024DA
:102C600030312447504747412C3038323133382CEB
:102C7000353035322E343639392C4E2C3030343410
:102C8000322E353831342C452C312C382C382E301E
:102C90002C37362E34303030303135323538373805
:102CA000392C4D2C2C2C2C2A31330D0A0024303198
:102CB0002447504747412C3038323133372C353098
:102CC00035322E343639392C4E2C30303434322EC5
:102CD000353831342C452C312C382C372E302C37CC
:102CE000362E343030303031353235383738392CB3
:102CF0004D2C2C2C2C2A31330D0A00243031244742
:102D0000504747412C3038323133312C3530353251
:102D10002E343731302C4E2C30303434322E35387E
:102D200030392C452C312C372C382E302C37382E7E
:102D3000302C4D2C2C2C2C2A31650D0A00243031DE
:102D40002447504747412C3038323133302C35300E
:102D500035322E343731322C4E2C30303434322E42
:102D6000353831312C452C312C372C382E302C373E
:102D7000372E383030303033303531373537383121
:102D80002C4D2C2C2C2C2A32380D0A0024303124C6
:102D900047504747412C3038323132372C353035A7
:102DA000322E343732322C4E2C30303434322E35F1
:102DB0003831302C452C312C372C31302E302C37FB
:102DC000382E302C4D2C2C2C2C2A32390D0A002474
:102DD00030312447504747412C3038323132342C7F
:102DE000353035322E343733312C4E2C30303434AC
:102DF000322E353833312C452C312C362C31332EB4
:102E0000302C37382E38303030303330353137359C
:102E10003738312C4D2C2C2C2C2A31610D0A0024F2
:102E200030312447504747412C3038323132322C30
:102E3000353035322E343734342C4E2C3030343457
:102E4000322E353833352C452C312C352C31322E61
:102E5000302C37392E38303030303330353137354B
:102E60003738312C4D2C2C2C2C2A31390D0A0024CA
:102E700030312447504747412C3038323132302CE2
:102E8000353035322E343735322C4E2C3030343408
:102E9000322E353834332C452C312C372C31312E11
:102EA000302C38302E3139393939363934383234DA
:102EB0003231392C4D2C2C2C2C2A31370D0A002480
:102EC00030312447504747412C3038323131362C8D
:102ED000353035322E343736392C4E2C30303434B0
:102EE000322E353836342C452C312C352C31312EC0
:102EF000302C37392E3930303030313532353837A3
:102F000038392C4D2C2C2C2C2A32310D0A0024302F
:102F1000312447504747412C3038323131352C3538
:102F20003035322E343737332C4E2C303034343267
:102F30002E353836392C452C312C352C31302E306D
:102F40002C38302E3539393939383437343132313B
:102F5000312C4D2C2C2C2C2A32650D0A00243031BA
:102F60002447504747412C3038323131342C3530EA
:102F700035322E343737392C4E2C30303434322E13
:102F8000353837352C452C312C372C392E302C3810
:102F9000302E383030303033303531373537383106
:102FA0002C4D2C2C2C2C2A32380D0A0024303124A4
:102FB00047504747412C3038323131302C3530358D
:102FC000322E343830362C4E2C30303434322E35CC
:102FD0003839382C452C312C392C392E302C3832BC
:102FE0002E302C4D2C2C2C2C2A31370D0A0024305D
:102FF000312447504747412C3038323130372C3557
:103000003035322E343832342C4E2C303034343289
:103010002E353931322C452C312C392C31302E3093
:103020002C38322E352C4D2C2C2C2C2A32660D0AA5
:10303000002430312447504747412C30383231305A
:10304000352C353035322E343833362C4E2C30304A
:103050003434322E353932302C452C312C392C3940
:103060002E302C38332E313939393936393438321B
:10307000343231392C4D2C2C2C2C2A32640D0A0080
:103080002430312447504747412C303832313032D8
:103090002C353035322E343834392C4E2C303034F7
:1030A00034322E353932372C452C312C392C382EF0
:1030B000302C38332E3139393939363934383234C5
:1030C0003231392C4D2C2C2C2C2A32340D0A002470
:1030D00030312447504747412C3038323035392C75
:1030E000353035322E343836342C4E2C30303434A2
:1030F000322E353933302C452C312C392C372E30AB
:103100002C38322E38303030303330353137353797
:1031100038312C4D2C2C2C2C2A32310D0A00243025
:10312000312447504747412C3038323035382C3520
:103130003035322E343837302C4E2C303034343257
:103140002E353932382C452C312C392C382E302C58
:1031500038332E3430303030313532353837383935
:103160002C4D2C2C2C2C2A31380D0A0024303124E3
:1031700047504747412C3038323035342C353035C4
:10318000322E343930332C4E2C30303434322E350C
:103190003934322C452C312C362C392E302C383504
:1031A0002E31393939393639343832343231392CD3
:1031B0004D2C2C2C2C2A32320D0A0024303124477D
:1031C000504747412C3038323035332C353035328A
:1031D0002E343931332C4E2C30303434322E3539B4
:1031E00034382C452C312C362C31302E302C3835BF
:1031F0002E31393939393639343832343231392C83
:103200004D2C2C2C2C2A31360D0A00243031244729
:10321000504747412C3038323035312C353035323B
:103220002E343933332C4E2C30303434322E353961
:1032300036302C452C312C362C31302E302C383574
:103240002E352C4D2C2C2C2C2A32370D0A002430F4
:10325000312447504747412C3038323034372C35F1
:103260003035322E353039392C4E2C303034343222
:103270002E353739322C452C312C352C31352E302A
:103280002C38342E353939393938343734313231F4
:10329000312C4D2C2C2C2C2A32300D0A00243031AC
:1032A0002447504747412C3038323034362C3530A3
:1032B00035322E353131302C4E2C30303434322EE4
:1032C000353739312C452C312C362C31352E302CDC
:1032D00038342E352C4D2C2C2C2C2A32640D0A001F
:1032E0002430312447504747412C30383230343372
:1032F0002C353035322E353131312C4E2C303034A6
:1033000034322E353833382C452C312C362C313391
:103310002E302C38352E3139393939363934383266
:10332000343231392C4D2C2C2C2C2A31390D0A00F9
:103330002430312447504747412C30383230343123
:103340002C353035322E353131302C4E2C30303456
:1033500034322E353836362C452C312C362C313142
:103360002E302C38362E302C4D2C2C2C2C2A32651D
:103370000D0A002430312447504747412C30383261
:103380003033382C353035322E353130352C4E2C0B
:1033900030303434322E353931342C452C312C3404
:1033A0002C382E302C38362E383030303033303503
:1033B0003137353738312C4D2C2C2C2C2A32390D05
:1033C0000A002430312447504747412C30383230EE
:1033D00033362C353035322E353039362C4E2C30B4
:1033E000303434322E353935382C452C312C362CAE
:1033F000382E302C38362E3639393939363934387A
:1034000032343231392C4D2C2C2C2C2A32630D0ABB
:10341000002430312447504747412C303832303374
:10342000302C353035322E353039392C4E2C303069
:103430003434322E353937372C452C312C392C3158
:10344000362E302C39302E35393939393834373435
:10345000313231312C4D2C2C2C2C2A32660D0A00A5
:103460002430312447504747412C303832303238ED
:103470002C353035322E353036352C4E2C3030341C
:1034800034322E353935362C452C312C392C32320C
:103490002E302C39312E3330303030333035313717
:1034A000353738312C4D2C2C2C2C2A31310D0A007B
:1034B0002430312447504747412C3038323032379E
:1034C0002C353035322E353035332C4E2C303034CF
:1034D00034322E353934372C452C312C392C3234BA
:1034E0002E302C39322E302C4D2C2C2C2C2A3236CE
:1034F0000D0A002430312447504747412C303832E0
:103500003032332C353035322E353031392C4E2C8B
:1035100030303434322E353930322C452C312C3782
:103520002C32312E302C39352E3330303030333090
:10353000353137353738312C4D2C2C2C2C2A31395C
:103540000D0A002430312447504747412C3038328F
:103550003032322C353035322E353031362C4E2C3F
:1035600030303434322E353839372C452C312C3626
:103570002C32302E302C39362E352C4D2C2C2C2C38
:103580002A32340D0A002430312447504747412C59
:103590003038323031392C353035322E3530313902
:1035A0002C4E2C30303434322E353838352C452CD6
:1035B000312C362C31342E302C39372E39303030F6
:1035C0003031353235383738392C4D2C2C2C2C2ACB
:1035D00032370D0A002430312447504747412C3000
:1035E00038323031362C353035322E353033352CBB
:1035F0004E2C30303434322E353836322C452C3186
:103600002C362C392E302C39382E35393939393879
:10361000343734313231312C4D2C2C2C2C2A313191
:103620000D0A002430312447504747412C303832AE
:103630003031342C353035322E353034332C4E2C5D
:1036400030303434322E353834392C452C312C3648
:103650002C382E302C39382E38303030303330354D
:103660003137353738312C4D2C2C2C2C2A32300D5B
:103670000A002430312447504747412C303832303B
:1036800031322C353035322E353035312C4E2C3010
:10369000303434322E353833352C452C312C352C02
:1036A000392E302C39382E383030303033303531F7
:1036B00037353738312C4D2C2C2C2C2A32630D0AFF
:1036C000002430312447504747412C3038323030C5
:1036D000382C353035322E353036322C4E2C3030B9
:1036E0003434322E353831332C452C312C372C31B3
:1036F000312E302C39382E383030303033303531AF
:1037000037353738312C4D2C2C2C2C2A31380D0ADA
:10371000002430312447504747412C303832303074
:10372000372C353035322E353036352C4E2C303066
:103730003434322E353830362C452C312C372C3859
:103740002E302C39382E3830303030333035313758
:10375000353738312C4D2C2C2C2C2A32630D0A0095
:103760002430312447504747412C303832303036EE
:103770002C353035322E353036392C4E2C30303415
:1037800034322E353830322C452C312C382C392E11
:10379000302C39392E333030303033303531373505
:1037A0003738312C4D2C2C2C2C2A32310D0A002488
:1037B00030312447504747412C3038323030322C9A
:1037C000353035322E353039362C4E2C30303434BD
:1037D000322E353830312C452C312C372C382E30C8
:1037E0002C38392E333030303033303531373537AF
:1037F00038312C4D2C2C2C2C2A32390D0A00243037
:10380000312447504747412C3038323030302C3546
:103810003035322E353130332C4E2C30303434327A
:103820002E353738342C452C312C372C31312E3075
:103830002C38392E38303030303330353137353759
:1038400038312C4D2C2C2C2C2A31370D0A002430E9
:10385000312447504747412C3038313935382C35E1
:103860003035322E353131302C4E2C30303434322C
:103870002E353734392C452C312C352C31302E3027
:103880002C38372E313939393936393438323432E7
:1038900031392C4D2C2C2C2C2A31330D0A0024309C
:1038A000312447504747412C3038313935352C3594
:1038B0003035322E353137352C4E2C3030343432D1
:1038C0002E353735322C452C312C392C31312E30D8
:1038D0002C39322E3539393939383437343132319F
:1038E000312C4D2C2C2C2C2A32390D0A002430314D
:1038F0002447504747412C3038313935322C353048
:1039000035322E353136352C4E2C30303434322E83
:10391000353732362C452C312C392C31362E302C83
:1039200039302E302C4D2C2C2C2C2A32300D0A0004
:103930002430312447504747412C30383139353114
:103940002C353035322E353135372C4E2C30303445
:1039500034322E353732332C452C312C392C323041
:103960002E302C38392E313939393936393438320C
:10397000343231392C4D2C2C2C2C2A31340D0A00A8
:103980002430312447504747412C303831393437BF
:103990002C353035322E353334332C4E2C303034F8
:1039A00034322E353132312C452C312C372C3336F4
:1039B0002E302C36382E35393939393834373431C0
:1039C0003231312C4D2C2C2C2C2A32310D0A002472
:1039D00030312447504747412C3038313934362C68
:1039E000353035322E353334332C4E2C30303434A0
:1039F000322E353132322C452C312C372C33332EAC
:103A0000302C36382E352C4D2C2C2C2C2A32610D96
:103A10000A002430312447504747412C303831398F
:103A200034342C353035322E353334342C4E2C3062
:103A3000303434322E353132332C452C312C372C66
:103A400033352E302C36372E393030303031353258
:103A500035383738392C4D2C2C2C2C2A32360D0A7F
:103A6000002430312447504747412C303831393415
:103A7000302C353035322E353333352C4E2C30301A
:103A80003434322E353039362C452C312C372C3409
:103A9000302E302C36372E363939393936393438DC
:103AA00032343231392C4D2C2C2C2C2A31340D0A45
:103AB000002430312447504747412C3038313933C6
:103AC000392C353035322E353333352C4E2C3030C1
:103AD0003434322E353039352C452C312C372C33BB
:103AE000392E302C36382E302C4D2C2C2C2C2A32C2
:103AF000310D0A002430312447504747412C3038DB
:103B0000313933362C353035322E353333352C4E72
:103B10002C30303434322E353038362C452C312C84
:103B2000362C35352E302C36382E31393939393658
:103B300039343832343231392C4D2C2C2C2C2A315A
:103B4000390D0A002430312447504747412C303882
:103B5000313933342C353035322E353333372C4E22
:103B60002C30303434322E353038332C452C312C37
:103B7000362C37392E302C36382E363939393936FD
:103B800039343832343231392C4D2C2C2C2C2A310A
:103B9000350D0A002430312447504747412C303836
:103BA000313933312C353035322E353333382C4ED4
:103BB0002C30303434322E353037342C452C312CE7
:103BC000352C3132382E302C37302E352C4D2C2CD4
:103BD0002C2C2A31340D0A00243031244750474719
:103BE000412C3038313933302C353035322E3533A5
:103BF00033392C4E2C30303434322E353037322C91
:103C0000452C312C352C3131382E302C37312E309B
:103C10002C4D2C2C2C2C2A31350D0A00243031242B
:103C200047504747412C3038313932352C35303503
:103C3000322E353334322C4E2C30303434322E3553
:103C40003036342C452C312C352C38342E302C3752
:103C5000322E343030303031353235383738392C37
:103C60004D2C2C2C2C2A32340D0A002430312447C0
:103C7000504747412C3038313932332C35303532CA
:103C80002E353334332C4E2C30303434322E353004
:103C900036342C452C312C352C38332E302C373201
:103CA0002E31393939393639343832343231392CC8
:103CB0004D2C2C2C2C2A31330D0A00243031244772
:103CC000504747412C3038313932322C353035327B
:103CD0002E353334332C4E2C30303434322E3530B4
:103CE00036332C452C312C352C37362E302C3732B0
:103CF0002E352C4D2C2C2C2C2A32340D0A0024303D
:103D0000312447504747412C3038313931382C3530
:103D10003035322E353334322C4E2C303034343270
:103D20002E353035362C452C312C352C36352E3071
:103D30002C37342E31393939393639343832343236
:103D400031392C4D2C2C2C2C2A31350D0A002430E5
:103D5000312447504747412C3038313931372C35E1
:103D60003035322E353334322C4E2C303034343220
:103D70002E353035352C452C312C352C36362E3021
:103D80002C37342E3330303030333035313735370F
:103D900038312C4D2C2C2C2C2A31630D0A00243068
:103DA000312447504747412C3038313931342C3594
:103DB0003035322E353334332C4E2C3030343432CF
:103DC0002E353035352C452C312C362C37312E30D4
:103DD0002C37342E31393939393639343832343296
:103DE00031392C4D2C2C2C2C2A31640D0A00243016
:103DF000312447504747412C3038313931312C3547
:103E00003035322E353334342C4E2C30303434327D
:103E10002E353035342C452C312C362C35382E307F
:103E20002C37342E352C4D2C2C2C2C2A32650D0A97
:103E3000002430312447504747412C303831393045
:103E4000392C353035322E353334342C4E2C30303D
:103E50003434322E353035322C452C312C372C343D
:103E6000352E302C37352E302C4D2C2C2C2C2A3244
:103E7000380D0A002430312447504747412C303850
:103E8000313930372C353035322E353334332C4EF2
:103E90002C30303434322E353035302C452C312C0A
:103EA000372C33352E302C37352E352C4D2C2C2CF1
:103EB0002C2A32310D0A0024303124475047474123
:103EC0002C3038313930322C353035322E353334D0
:103ED000332C4E2C30303434322E353034392C459E
:103EE0002C312C372C31392E302C37352E363939B0
:103EF00039393639343832343231392C4D2C2C2C76
:103F00002C2A31650D0A002430312447504747419F
:103F10002C3038313930312C353035322E35333480
:103F2000332C4E2C30303434322E353034382C454E
:103F30002C312C372C31382E302C37352E38303070
:103F400030303330353137353738312C4D2C2C2C3F
:103F50002C2A31370D0A002430312447504747417D
:103F60002C3038313930302C353035322E35333431
:103F7000332C4E2C30303434322E353034372C45FF
:103F80002C312C372C31382E302C37362E302C4D0E
:103F90002C2C2C2C2A32390D0A0024303124475085
:103FA0004747412C3038313835362C353035322EB4
:103FB000353334332C4E2C30303434322E353034CB
:103FC000362C452C312C362C31392E302C37362ED0
:103FD000303939393938343734313231312C4D2C8C
:103FE0002C2C2C2A32360D0A00243031244750471D
:103FF00047412C3038313835342C353035322E3578
:104000003334342C4E2C30303434322E3530343579
:104010002C452C312C372C31392E302C37362E357F
:104020002C4D2C2C2C2C2A32380D0A002430312413
:1040300047504747412C3038313835322C353035F0
:10404000322E353334352C4E2C30303434322E353C
:104050003034352C452C312C382C32302E302C3746
:10406000362E353939393938343734313231312C0B
:104070004D2C2C2C2C2A32360D0A002430312447AA
:10408000504747412C3038313834392C35303532AF
:104090002E353333392C4E2C30303434322E3530EB
:1040A00032322C452C312C372C32342E302C3833F4
:1040B0002E303939393938343734313231312C4DA9
:1040C0002C2C2C2C2A32320D0A002430312447505B
:1040D0004747412C3038313834362C353035322E84
:1040E000353333362C4E2C30303434322E3439398B
:1040F000332C452C312C362C33302E302C39312EAC
:10410000352C4D2C2C2C2C2A32650D0A00243031F4
:104110002447504747412C3038313834352C35301E
:1041200035322E353333362C4E2C30303434322E5B
:10413000343939332C452C312C382C33302E302C5B
:1041400039312E352C4D2C2C2C2C2A32330D0A00D3
:104150002430312447504747412C303831383431EE
:104160002C353035322E353333362C4E2C3030341E
:1041700034322E343939332C452C312C382C333110
:104180002E302C39312E3430303030313532353814
:104190003738392C4D2C2C2C2C2A32610D0A002456
:1041A00030312447504747412C3038313834302C97
:1041B000353035322E353333332C4E2C30303434C9
:1041C000322E343939352C452C312C382C33322EC3
:1041D000302C38392E353939393938343734313291
:1041E00031312C4D2C2C2C2C2A32320D0A0024304B
:1041F000312447504747412C3038313833382C353B
:104200003035322E353333322C4E2C30303434327C
:104210002E353030302C452C312C382C32342E3089
:104220002C38382E352C4D2C2C2C2C2A32320D0AC1
:10423000002430312447504747412C30383138333F
:10424000332C353035322E353333342C4E2C303040
:104250003434322E353030312C452C312C372C3142
:10426000362E302C38382E3430303030313532352F
:10427000383738392C4D2C2C2C2C2A32630D0A005F
:104280002430312447504747412C303831383332BD
:104290002C353035322E353333332C4E2C303034F0
:1042A00034322E343939382C452C312C372C3136D8
:1042B0002E302C38392E30393939393834373431B9
:1042C0003231312C4D2C2C2C2C2A32360D0A002464
:1042D00030312447504747412C3038313832392C5F
:1042E000353035322E353333352C4E2C3030343496
:1042F000322E343939392C452C312C382C31372E8B
:10430000302C38382E39303030303135323538377E
:1043100038392C4D2C2C2C2C2A32630D0A002430D9
:10432000312447504747412C3038313832372C350B
:104330003035322E353333352C4E2C303034343248
:104340002E343939392C452C312C382C31372E303C
:104350002C38382E3539393939383437343132310F
:10436000312C4D2C2C2C2C2A32660D0A0024303195
:104370002447504747412C3038313832342C3530BF
:1043800035322E353333362C4E2C30303434322EF9
:10439000343939362C452C312C382C31342E302CF4
:1043A00038392E30393939393834373431323131BE
:1043B0002C4D2C2C2C2C2A32370D0A002430312481
:1043C00047504747412C3038313832332C3530355F
:1043D000322E353332322C4E2C30303434322E35AE
:1043E0003033312C452C312C382C31362E302C38B2
:1043F000312E343030303031353235383738392C91
:104400004D2C2C2C2C2A32660D0A002430312447E6
:10441000504747412C3038313831392C353035321E
:104420002E353339352C4E2C30303434322E34394D
:1044300034342C452C312C382C32342E302C393954
:104440002E393030303031353235383738392C4D1F
:104450002C2C2C2C2A32350D0A00243031244750C4
:104460004747412C3038313831342C353035322EF5
:10447000353339372C4E2C30303434322E343934F5
:10448000322C452C312C372C34322E302C3130311B
:104490002E33303030303330353137353738312CFA
:1044A0004D2C2C2C2C2A32660D0A00243031244746
:1044B000504747412C3038313831332C3530353284
:1044C0002E353339362C4E2C30303434322E3439AC
:1044D00033352C452C312C372C34392E302C3130BF
:1044E000312E393030303031353235383738392C9B
:0B44F0004D2C2C2C2C2A31650D0A00ED
:0444FC000C0EE66E4E
:10450000F2EC2AF0E552030EE66E00EC2BF0E552D9
:10451000000000000000000000000000000000009B
:104520001200060EE66EF2EC2AF0E552010EE66E7F
:1045300000EC2BF0E552000000000000000000003D
:10454000000012000C0EE66EF2EC2AF0E552030EAB
:10455000E66E00EC2BF0E5520000000000000000C9
:10456000000000001200C16AB46A806A926A816A1F
:10457000F00E936E826A946A948C948E8282D08EAE
:104580009F8A9E9A9D8AF29EF29C808A808880866D
:104590001200D9CFE6FFE1CFD9FF040EE126DE6A93
:1045A000DD6ADE6ADD6ADECF00F0DDCF01F0020EEB
:1045B000DBCF02F0030EDBCF03F001500318E8AEAF
:1045C00002D0033404D00250005C035001581DE2B5
:1045D000DECF00F0DDCF01F0050E0102F3CF01F0D8
:1045E0000002F3CF00F0F4500126CA0E0026010E9F
:1045F000012200C0E6FF01C0E6FF78D8E552E5528F
:10460000DF2A010E01E3DB2ACED7040EE15C02E2D1
:10461000E16AE552E16EE552E7CFD9FF1200A3DF70
:104620004AEC2AF0B00EE66E040EE66E7C0EE66EE4
:10463000BBEC29F0E552E552E552B886F28EF28CD9
:10464000EFD8FED71200D9CFE6FFE1CFD9FF030E96
:10465000E126DE6ADD6A6DEC2AF0E76E020EE7CF36
:10466000DBFFDECFE9FFDDCFEAFF020EE926010E18
:10467000EA22020EDBCFEFFFDF2A010E01E3DB2A85
:10468000020EDB500A08E7E1030EE15C02E2E16A98
:10469000E552E16EE552E7CFD9FF1200D9CFE6FF30
:1046A000E1CFD9FF020EE126DE68DD68DF2A010EC8
:1046B00001E3DB2A020EE66E010EE66E26EC2AF01E
:1046C000E552E552DECFE9FFDDCFEAFF020EE92633
:1046D000010EEA22EF50EAE1020EE15C02E2E16A39
:1046E000E552E16EE552E7CFD9FF1200D9CFE6FFE0
:1046F000E1CFD9FF640EE126D950FD0FE66EFF0E23
:10470000DA20E66E00EC2AF0E552E552640EE66E21
:10471000E66AE66AD9CFE6FFDACFE6FF8CEC2AF04C
:10472000006E050EE15E0050640EE15C02E2E16A9B
:10473000E552E16EE552E7CFD9FF1200D9CFE6FF8F
:10474000E1CFD9FF020EE126DE6ADD6AE3C1F6FFA2
:10475000E4C1F7FF0800F550E66EBDEC2AF0E55223
:10476000ACA2FED70101E3C1F6FFE4C1F7FFE32BE2
:10477000000EE4230800F5500A08E8E1E668A6EC1C
:104780002AF0E552E668A6EC2AF0E552020EE15C5A
:1047900002E2E16AE552E16EE552E7CFD9FF12008D
:1047A000D9CFE6FFE1CFD9FF670EE126030EF36E06
:1047B000640EF3CFDBFF650EDB6A240EDF6EDE5284
:1047C000300EDD6E310EF36E020EF3CFDBFF640EA2
:1047D000DBCF00F0650EDBCF01F0D890015004E68E
:1047E000640E005C000E015810E29EAAFED7660E11
:1047F000AECFDBFFDBCFE6FFBDEC2AF0E552640E67
:10480000DB2A650E01E3DB2AE2D79E9A670EE15CA4
:1048100002E2E16AE552E16EE552E7CFD9FF12000C
:10482000D9CFE6FFE1CFD9FF640EE1260101AB0E3F
:10483000E36F440EE46F82DF01015A0EE36F440E12
:10484000E46F7CDF01010B0EE36F440EE46F76DF53
:104850000101BC0EE36F430EE46F70DF01016D0ECA
:10486000E36F430EE46F6ADF01011E0EE36F430E38
:10487000E46F64DF0101CF0EE36F420EE46F5EDF91
:104880000101800EE36F420EE46F58DF0101310E2B
:10489000E36F420EE46F52DF0101EE0EE36F410E53
:1048A000E46F4CDF01019F0EE36F410EE46F46DFC2
:1048B0000101500EE36F410EE46F40DF01010D0E68
:1048C000E36F410EE46F3ADF0101CA0EE36F400E61
:1048D000E46F34DF01017B0EE36F400EE46F2EDFE7
:1048E00001012C0EE36F400EE46F28DF0101E90E99
:1048F000E36F3F0EE46F22DF01019A0EE36F3F0E7C
:10490000E46F1CDF0101570EE36F3F0EE46F16DF0B
:104910000101070EE36F3F0EE46F10DF0101B70ED8
:10492000E36F3E0EE46F0ADF0101740EE36F3E0E8B
:10493000E46F04DF0101310EE36F3E0EE46FFEDE33
:104940000101EE0EE36F3D0EE46FF8DE01019E0EF5
:10495000E36F3D0EE46FF2DE01014E0EE36F3D0E9C
:10496000E46FECDE0101FE0EE36F3C0EE46FE6DE69
:104970000101BB0EE36F3C0EE46FE0DE01016B0E44
:10498000E36F3C0EE46FDADE01011C0EE36F3C0EB8
:10499000E46FD4DE0101D80EE36F3B0EE46FCEDE90
:1049A0000101940EE36F3B0EE46FC8DE0101440E7B
:1049B000E36F3B0EE46FC2DE0101F40EE36F3A0ECB
:1049C000E46FBCDE0101B10EE36F3A0EE46FB6DEB8
:1049D0000101610EE36F3A0EE46FB0DE0101120EC9
:1049E000E36F3A0EE46FAADE0101CF0EE36F390EDA
:1049F000E46FA4DE0101800EE36F390EE46F9EDEEA
:104A00000101300EE36F390EE46F98DE0101ED0E07
:104A1000E36F380EE46F92DE01019E0EE36F380EF5
:104A2000E46F8CDE01014E0EE36F380EE46F86DE1C
:104A30000101FE0EE36F370EE46F80DE0101AF0E61
:104A4000E36F370EE46F7ADE0101600EE36F370E1D
:104A5000E46F74DE0101110EE36F370EE46F6EDE5A
:104A60000101C10EE36F360EE46F68DE0101720EC4
:104A7000E36F360EE46F62DE0101230EE36F360E44
:104A8000E46F5CDE0101D50EE36F350EE46F56DE98
:104A90000101860EE36F350EE46F50DE0101430E17
:104AA000E36F350EE46F4ADE0101F30EE36F340E5F
:104AB000E46F44DE0101B00EE36F340EE46F3EDEBE
:104AC0000101600EE36F340EE46F38DE0101110E58
:104AD000E36F340EE46F32DE0101C20EE36F330E7A
:104AE000E46F2CDE0101730EE36F330EE46F26DEFC
:104AF0000101300EE36F330EE46F20DE0101E00EA2
:104B0000E36F320EE46F1ADE01019D0EE36F320E89
:104B1000E46F14DE01014E0EE36F320EE46F0EDE21
:104B200001010B0EE36F320EE46F08DE0101BB0ED4
:104B3000E36F310EE46F02DE01016C0EE36F310EA4
:104B4000E46FFCDD01011E0EE36F310EE46FF6DD54
:104B50000101CF0EE36F300EE46FF0DD0101800E36
:104B6000E36F300EE46FEADD0101310EE36F300ECA
:104B7000E46FE4DD0101EE0EE36F2F0EE46FDEDD86
:104B80000101AC0EE36F2F0EE46FD8DD01015D0E65
:104B9000E36F2F0EE46FD2DD01010E0EE36F2F0ED7
:104BA000E46FCCDD0101BF0EE36F2E0EE46FC6DDB6
:104BB00001016F0EE36F2E0EE46FC0DD01011F0EC9
:104BC000E36F2E0EE46FBADD0101CF0EE36F2D0E01
:104BD000E46FB4DD01018C0EE36F2D0EE46FAEDDEA
:104BE00001013D0EE36F2D0EE46FA8DD0101FB0E08
:104BF000E36F2C0EE46FA2DD0101AD0EE36F2C0E0E
:104C0000E46F9CDD01015F0EE36F2C0EE46F96DD17
:104C10000101110EE36F2C0EE46F90DD0101C30E54
:104C2000E36F2B0EE46F8ADD0101740EE36F2B0E30
:104C3000E46F84DD0101320EE36F2B0EE46F7EDD45
:104C40000101E30EE36F2A0EE46F78DD0101940E9B
:104C5000E36F2A0EE46F72DD0101440EE36F2A0E4A
:104C6000E46F6CDD0101F50EE36F290EE46F66DD84
:104C70000101A50EE36F290EE46F60DD0101550E01
:104C8000E36F290EE46F5ADD0101050EE36F290E73
:104C9000E46F54DD0101C20EE36F280EE46F4EDDB8
:104CA0000101730EE36F280EE46F48DD0101240E4D
:104CB000E36F280EE46F42DD0101E10EE36F270E82
:104CC000E46F3CDD0101910EE36F270EE46F36DDEA
:104CD0000101410EE36F270EE46F30DD0101F10E9B
:104CE000E36F260EE46F2ADD0101A20EE36F260EAC
:104CF000E46F24DD0101520EE36F260EE46F1EDD2A
:104D00000101030EE36F260EE46F18DD0101B50EFD
:104D1000E36F250EE46F12DD0101660EE36F250ED1
:104D2000E46F0CDD0101160EE36F250EE46F06DD66
:104D30000101C60EE36F240EE46F00DD0101830E56
:104D4000E36F240EE46FFADC0101400EE36F240EE2
:104D5000E46FF4DC0101F10EE36F230EE46FEEDC8F
:104D60000101A20EE36F230EE46FE8DC0101530E94
:104D7000E36F230EE46FE2DC0101040EE36F230E08
:104D8000E46FDCDC0101B40EE36F220EE46FD6DCCD
:104D90000101640EE36F220EE46FD0DC0101140EFA
:104DA000E36F220EE46FCADC0101D10EE36F210E26
:104DB000E46FC4DC01018E0EE36F210EE46FBEDCF4
:104DC00001014B0EE36F210EE46FB8DC0101FB0E15
:104DD000E36F200EE46FB2DC0101AB0EE36F200E37
:104DE000E46FACDC01015B0EE36F200EE46FA6DC28
:104DF00001010C0EE36F200EE46FA0DC0101BC0E7C
:104E0000E36F1F0EE46F9ADC01016D0EE36F1F0E5E
:104E1000E46F94DC01011E0EE36F1F0EE46F8EDC65
:104E20000101CF0EE36F1E0EE46F88DC0101800EDE
:104E3000E36F1E0EE46F82DC01013D0EE36F1E0E78
:104E4000E46F7CDC0101EE0EE36F1D0EE46F76DC97
:104E500001019F0EE36F1D0EE46F70DC0101510E26
:104E6000E36F1D0EE46F6ADC0101020EE36F1D0E9D
:104E7000E46F64DC0101B30EE36F1C0EE46F5EDCD3
:104E80000101650EE36F1C0EE46F58DC0101160E84
:104E9000E36F1C0EE46F52DC0101D30EE36F1B0EB7
:104EA000E46F4CDC0101900EE36F1B0EE46F46DCF7
:104EB0000101410EE36F1B0EE46F40DC0101F10EB6
:104EC000E36F1A0EE46F3ADC0101A10EE36F1A0ED4
:104ED000E46F34DC0101510EE36F1A0EE46F2EDC37
:104EE0000101000EE36F1A0EE46F28DC0101BD0E14
:104EF000E36F190EE46F22DC01016D0EE36F190EF2
:104F0000E46F1CDC01011D0EE36F190EE46F16DC6B
:104F10000101CE0EE36F180EE46F10DC01018B0E61
:104F2000E36F180EE46F0ADC01013D0EE36F180E0B
:104F3000E46F04DC0101EF0EE36F170EE46F9EECEB
:104F400023F00101A10EE36F170EE46F9EEC23F036
:104F50000101530EE36F170EE46F9EEC23F0010185
:104F6000100EE36F170EE46F9EEC23F00101CD0EDF
:104F7000E36F160EE46F9EEC23F001018A0EE36FDF
:104F8000160EE46F9EEC23F001013B0EE36F160E4C
:104F9000E46F9EEC23F00101EC0EE36F150EE46F5D
:104FA0009EEC23F00101A90EE36F150EE46F9EEC59
:104FB00023F00101650EE36F150EE46F9EEC23F004
:104FC0000101210EE36F150EE46F9EEC23F0010149
:104FD000D00EE36F140EE46F9EEC23F001017F0E00
:104FE000E36F140EE46F9EEC23F001012F0EE36FCC
:104FF000140EE46F9EEC23F00101DE0EE36F130E3E
:10500000E46F9EEC23F001018F0EE36F130EE46F4B
:105010009EEC23F001013F0EE36F130EE46F9EEC54
:1050200023F00101FC0EE36F120EE46F9EEC23F0FF
:105030000101AC0EE36F120EE46F9EEC23F0010150
:105040005D0EE36F120EE46F9EEC23F001010D0E76
:10505000E36F120EE46F9EEC23F00101BD0EE36FCF
:10506000110EE46F9EEC23F001016E0EE36F110E42
:10507000E46F9EEC23F001011F0EE36F110EE46F4D
:105080009EEC23F00101CF0EE36F100EE46F9EEC57
:1050900023F001018C0EE36F100EE46F9EEC23F001
:1050A00001013D0EE36F100EE46F9EEC23F0010151
:1050B000EE0EE36F0F0EE46F9EEC23F001019E0EE7
:1050C000E36F0F0EE46F9EEC23F001014F0EE36FD0
:1050D0000F0EE46F9EEC23F00101000EE36F0F0E44
:1050E000E46F9EEC23F00101B10EE36F0E0EE46F4E
:1050F0009EEC23F00101610EE36F0E0EE46F9EEC57
:1051000023F00101120EE36F0E0EE46F9EEC23F00C
:105110000101C20EE36F0D0EE46F9EEC23F001015E
:10512000730EE36F0D0EE46F9EEC23F00101310E60
:10513000E36F0D0EE46F9EEC23F00101EF0EE36FC1
:105140000C0EE46F9EEC23F00101A10EE36F0C0E38
:10515000E46F9EEC23F00101510EE36F0C0EE46F3F
:105160009EEC23F00101020EE36F0C0EE46F9EEC47
:1051700023F00101BF0EE36F0B0EE46F9EEC23F0F2
:105180000101700EE36F0B0EE46F9EEC23F0010142
:10519000210EE36F0B0EE46F9EEC23F00101D10EA4
:1051A000E36F0A0EE46F9EEC23F00101810EE36FC2
:1051B0000A0EE46F9EEC23F001013E0EE36F0A0E2F
:1051C000E46F9EEC23F00101FB0EE36F090EE46F28
:1051D0009EEC23F00101AB0EE36F090EE46F9EEC31
:1051E00023F00101680EE36F090EE46F9EEC23F0DB
:1051F0000101190EE36F090EE46F9EEC23F001012B
:10520000C90EE36F080EE46F9EEC23F00101790EE6
:10521000E36F080EE46F9EEC23F001012A0EE36FAA
:10522000080EE46F9EEC23F0640EE15C02E2E16A9A
:0C523000E552E16EE552E7CFD9FF120015
:04523C001C0EF66EE0
:10524000080EF76E000EF86E01010900F550EA6FC6
:105250000900F550EB6F03E1EA6701D03DD009008A
:10526000F550E56F0900F550E66F0900F550E76F5E
:1052700009000900F550E96E0900F550EA6E0900D1
:1052800009000900F550E86F0900F550E96F0900C1
:105290000900F6CFECF1F7CFEDF1F8CFEEF1E5C173
:1052A000F6FFE6C1F7FFE7C1F8FF0101E85302E1AD
:1052B000E95307E00900F550EE6EE807F8E2E90768
:1052C000F9D7ECC1F6FFEDC1F7FFEEC1F8FF010120
:0A52D000EA07000EEB5BBFD71200E7
:0652DA00DACFE4FFE2CF91
:1052E000DAFFE9CFE4FFEACFE4FFF6CFE4FFF7CF40
:1052F000E4FFF5CFE4FFF3CFE4FFF4CFE4FFFACF10
:10530000E4FF00EE04F0020EE80403E3EECFE4FF56
:10531000FBD700EE00F0040EE80403E3EECFE4FF59
:10532000FBD7E652F29ED0EC23F09E9AF28EE55225
:1053300000EE03F0040EE80403E3E5CFEDFFFBD736
:1053400000EE05F0020EE80403E3E5CFEDFFFBD726
:10535000E5CFFAFFE5CFF4FFE5CFF3FFE5CFF5FFAB
:10536000E5CFF7FFE5CFF6FFE5CFEAFFE5CFE9FFB1
:06537000E5CFDAFF110099
:0A537600D9CFE6FFDACFE6FFE1CF62
:10538000D9FFE2CFDAFFAC6AAB6AFD0EDBB0AC88C6
:10539000DBA202D0AC8CAB8CDBB4AC8EDBA602D033
:1053A000AB8801D0AB8ADBB8AC849E98DBBAAB8605
:1053B000DBAC02D09D8A01D09D9A9E9ADBAE02D0D2
:1053C0009D8801D09D98FB0EDB50AF6EFB0EFC0E4E
:1053D000DBCF01F001C000F0016A0050B06EAC8A72
:1053E000AB8E949C948EAC50100B04E0AC50800BB0
:1053F00001E1948CE552E5CFDAFFE7CFD9FF120047
:10540000D9CFE6FFDACFE6FFE1CFD9FFE2CFDAFF6F
:10541000ACA2FED7FC0EDBCFE9FFFD0EDBCFEAFF2F
:10542000EF50E66EBDEC2AF0E552FC0EDBCFE9FF53
:10543000DB2AFD0EDBCFEAFF01E3DB2AEF50E8E1D8
:0C544000E552E5CFDAFFE7CFD9FF1200FC
:04544C00D9CFE6FFCF
:10545000DACFE6FFE1CFD9FFE2CFDAFFFC0EDBCFF8
:10546000E9FFFD0EDBCFEAFFEF50E66E51EC2AF0CC
:10547000E552FC0EDBCFE9FFDB2AFD0EDBCFEAFFB6
:1054800001E3DB2AEF50EAE1E552E5CFDAFFE7CFAF
:04549000D9FF12002E
:0C5494000F01939881880F01938A818A90
:1054A00012000101FF0EE3CFF2F1090EF36FD89065
:1054B0000F015DEF2AF00101F2330F01D8A08198AE
:1054C000D8B081887EEC22F00101F32F5BEF2AF047
:0A54D0000F0181887EEC22F012002B
:0654DA00D9CFE6FFDACF96
:1054E000E6FFE1CFD9FFE2CFDAFFE652F20E01018B
:1054F000F417ABAC03D0F491ABB0F481ABB4F4854A
:10550000ABB2F487AE50DF6EDF50E552E552E5CF27
:08551000DAFFE7CFD9FF12001A
:08551800FE0EE3CFE9FFFF0ED8
:10552000E3CFEAFFE9CFF3FFEACFF4FFFB0EE3504E
:1055300003E1FC0EE35009E0FB0EE30602E2FC0E81
:0C554000E306FD0EE350EE6EF1D7120002
:04554C00FF0EE3501B
:10555000076EEF0E01D0F30EE76EE72EADEF2AF0E7
:105560000C0E066EE76AE72EB3EF2AF0062EB2EFB6
:0A5570002AF0072EABEF2AF012001C
:06557A00D9CFE6FFDACFF5
:10558000E6FFE1CFD9FFE2CFDAFFACAC04D0AC90BC
:105590000101F4B3AC80FD0EDB50AD6EE552E5CFFA
:0855A000DAFFE7CFD9FF12008A
:0855A800000EF36E00EE00F0AE
:1055B000040E01D81200EA6002D0EE6AFCD7F35064
:0855C000E9601200EE6AFCD75D
:0855C80013EE00F023EE00F0E9
:1055D000F86A059C1EEC29F003EC04F00FEC23F0B4
:0455E000FBD71200E3
:0C55E400FF0EE350076E1B0E00D001D03C
:1055F000200EE76EE72EFED7072EFAD700D0120056
:10560000FF0EE350E84E1200000000D000D000D0A2
:06561000E82EFAD712009B
:00000001FF
