:020000040000FA
:0600000023EF09F01200DD
:0608000023EF09F01200D5
:020806001200DE
:04080800A3EF07F063
:03080C00000000E9
:04081800A3EF07F053
:04081C0001000C08C3
:0A0820000000F101000003000000D9
:06082A000C0EE66E31EC3D
:1008300009F0E552030EE66E3FEC09F0E5520000C8
:100840000000000000000000000000000000120096
:10085000060EE66E31EC09F0E552010EE66E3FEC55
:1008600009F0E55200000000000000000000000058
:1008700012000C0EE66E31EC09F0E552030EE66E46
:100880003FEC09F0E552000000000000000000000D
:1008900000001200C16AB46A806A926A816A300EEE
:1008A000936E826AC00E946E80868088808AF286FB
:1008B000F290D08EF29EF29C1200D9CFE6FFE1CFEB
:1008C000D9FF040EE126DE6ADD6ADE6ADD6ADECF6C
:1008D00000F0DDCF01F0020EDBCF02F0030EDBCF24
:1008E00003F001500318E8AE02D0033404D00250E4
:1008F000005C035001581DE2DECF00F0DDCF01F0B7
:10090000050E0102F3CF01F00002F3CF00F0F45026
:100910000126CA0E0026010E012200C0E6FF01C01A
:10092000E6FFAFD8E552E552DF2A010E01E3DB2AEC
:10093000CED7040EE15C02E2E16AE552E16EE552D7
:10094000E7CFD9FF1200A6DF36EC08F0B00EE66E56
:10095000040EE66E3C0EE66EF1EC07F0E552E55251
:10096000E552B886F28EF28CD5D8FED71200D9CFD8
:10097000E6FFE1CFD9FF160EE126140EE66ED9CFC1
:10098000E6FFDACFE6FF7AEC08F0E552E552E552F1
:10099000D9CFE6FFDACFE6FF53D8E552E552020E93
:1009A000DB50650A14E0010A11E0070A0EE0010AB3
:1009B0000AE0030A01E03AD0020EDBCFE3F1030EB6
:1009C000DBCFE4F133D079DF31D030D02FD0140E2B
:1009D000DB6A150EDB6A140EDBCF00F0150EDBCFE1
:1009E00001F0D890015004E6C80E005C000E0158DA
:1009F0001CE28250040B01E0010E006E8250040BD9
:100A000001E0010E005C02E1000E01D0010EE6687B
:100A1000E5EC08F0E552E668E5EC08F0E552140E66
:100A2000DB2A150E01E3DB2AD6D700D0160EE15CD7
:100A300002E2E16AE552E16EE552E7CFD9FF12002A
:100A4000D9CFE6FFE1CFD9FFFD0EDBCFE9FFFE0EE8
:100A5000DBCFEAFFEF50E66EFCEC08F0E552ACA20B
:100A6000FED7FD0EDBCFE9FFDB2AFE0EDBCFEAFF70
:100A700001E3DB2AEF500A08E7E1E552E7CFD9FFAF
:100A80001200D9CFE6FFE1CFD9FF640EE126D9509D
:100A9000FD0FE66EFF0EDA20E66EA7EC08F0E552D9
:100AA000E552640EE66EE66AE66AD9CFE6FFDACF73
:100AB000E6FFCBEC08F0006E050EE15E0050640E20
:100AC000E15C02E2E16AE552E16EE552E7CFD9FF6F
:100AD0001200E5C1F6FFE6C1F7FF0800F550E66E2B
:100AE000FCEC08F0E552ACA2FED70101E5C1F6FF2F
:100AF000E6C1F7FFE52B000EE6230800F5500A08D3
:100B0000E8E1E668E5EC08F0E552E668E5EC08F0B7
:100B1000E5521200D9CFE6FFE1CFD9FF690EE126F9
:100B2000640EDB6A650EDB6A660EDB6A670EDB6AE3
:100B3000240EDF6EDE52300EDD6E310EF36E020ECD
:100B4000F3CFDBFF0A0EF36E030EF3CFDBFF660E6F
:100B5000DBCF00F0670EDBCF01F0D890015004E648
:100B6000640E005C000E01583BE280769EBA02D013
:100B7000807AFCD7D950640FE96EDACFEAFFEE50E5
:100B8000ED101BE10101A40EE56F0E0EE66FA1DF73
:100B9000640EE66EE66AE66AD9CFE6FFDACFE6FFD4
:100BA000CBEC08F0006E050EE15E0050010EF36E16
:100BB000640EF3CFDBFF650EDB6A680EAECFDBFFA2
:100BC000DBCFE6FFFCEC08F0E552680EDB500A08CC
:100BD00001E106D0660EDB2A670E01E3DB2AB7D7F8
:100BE000640EDB6A650EDB6A660EDB6A670EDB6A23
:100BF000690EE15C02E2E16AE552E16EE552E7CF9F
:100C0000D9FF1200D9CFE6FFE1CFD9FF640EE1266C
:100C10000101540EE56F0E0EE66F5BDF0101030E5E
:100C2000E56F0E0EE66F55DF0101B40EE56F0D0E98
:100C3000E66F4FDF0101650EE56F0D0EE66F49DFD0
:100C40000101160EE56F0D0EE66F43DF0101C70EC1
:100C5000E56F0C0EE66F3DDF0101780EE56F0C0EBF
:100C6000E66F37DF640EE15C02E2E16AE552E16EB5
:080C7000E552E7CFD9FF1200A5
:080C78002430312447504747A6
:100C8000412C3038313832392C353035322E35332D
:100C900033352C4E2C30303434322E343939392C13
:100CA000452C312C382C31372E302C38382E393019
:100CB00030303031353235383738392C4D2C2C2CFA
:100CC0002C2A32630D0A0024303124475047474113
:100CD0002C3038313832372C353035322E353333ED
:100CE000352C4E2C30303434322E343939392C45B1
:100CF0002C312C382C31372E302C38382E353939D0
:100D0000393938343734313231312C4D2C2C2C2CAC
:100D10002A32660D0A002430312447504747412CBF
:100D20003038313832342C353035322E3533333695
:100D30002C4E2C30303434322E343939362C452C6C
:100D4000312C382C31342E302C38392E3039393979
:100D50003938343734313231312C4D2C2C2C2C2A6B
:100D600032370D0A002430312447504747412C3098
:100D700038313832332C353035322E353332322C4F
:100D80004E2C30303434322E353033312C452C312A
:100D90002C382C31362E302C38312E343030303047
:100DA00031353235383738392C4D2C2C2C2C2A3211
:100DB000660D0A002430312447504747412C303813
:100DC000313831392C353035322E353339352C4EDA
:100DD0002C30303434322E343934342C452C312CF0
:100DE000382C32342E302C39392E393030303031E5
:100DF000353235383738392C4D2C2C2C2C2A3235BD
:100E00000D0A002430312447504747412C303831F7
:100E10003831342C353035322E353339372C4E2C91
:100E200030303434322E343934322C452C312C3796
:100E30002C34322E302C3130312E333030303033B0
:100E400030353137353738312C4D2C2C2C2C2A327B
:100E5000660D0A002430312447504747412C303872
:100E6000313831332C353035322E353339362C4E3E
:100E70002C30303434322E343933352C452C312C4F
:100E8000372C34392E302C3130312E39303030304F
:100E900031353235383738392C4D2C2C2C2C2A3121
:080EA000650D0A002430310049
:080EA8001C0EF66E080EF76E39
:100EB000000EF86E01010900F550EC6F0900F550C5
:100EC000ED6F03E1EC6701D03DD00900F550E76F0D
:100ED0000900F550E86F0900F550E96F09000900B5
:100EE000F550E96E0900F550EA6E090009000900A5
:100EF000F550EA6F0900F550EB6F09000900F6CFD5
:100F0000EEF1F7CFEFF1F8CFF0F1E7C1F6FFE8C16E
:100F1000F7FFE9C1F8FF0101EA5302E1EB5307E0F3
:100F20000900F550EE6EEA07F8E2EB07F9D7EEC1DB
:100F3000F6FFEFC1F7FFF0C1F8FF0101EC07000E6B
:060F4000ED5BBFD71200BB
:0A0F4600DACFE4FFE2CFDAFFE9CFD3
:100F5000E4FFEACFE4FFF6CFE4FFF7CFE4FFF5CFFD
:100F6000E4FFF3CFE4FFF4CFE4FFFACFE4FF00EEB9
:100F700004F0020EE80403E3EECFE4FFFBD700EE3B
:100F800000F0040EE80403E3EECFE4FFFBD7E652E3
:100F9000F29EB7EC04F0F290F28EE55200EE03F010
:100FA000040EE80403E3E5CFEDFFFBD700EE05F008
:100FB000020EE80403E3E5CFEDFFFBD7E5CFFAFF30
:100FC000E5CFF4FFE5CFF3FFE5CFF5FFE5CFF7FF82
:100FD000E5CFF6FFE5CFEAFFE5CFE9FFE5CFDAFFA2
:020FE0001100FE
:0E0FE200D9CFE6FFDACFE6FFE1CFD9FFE2CFAD
:100FF000DAFFAC6AAB6AFD0EDBB0AC88DBA202D0D4
:10100000AC8CAB8CDBB4AC8EDBA602D0AB8801D051
:10101000AB8ADBB8AC849E98DBBAAB86DBAC02D083
:101020009D8A01D09D9A9E9ADBAE02D09D8801D008
:101030009D98FB0EDB50AF6EFB0EFC0EDBCF01F07C
:1010400001C000F0016A0050B06EAC8AAB8E949C77
:10105000948EAC50100B04E0AC50800B01E1948CEA
:0C106000E552E5CFDAFFE7CFD9FF120020
:04106C000F01939845
:1010700081880F01938A818A12000101080EF56FA1
:101080000F0181BA41EF08F028EC04F00F0181BA9A
:1010900041EF08F039EC04F00F0181AAD89081BA31
:1010A000D8800101F433F52F4AEF08F039EC04F051
:1010B00028EC04F000000101F45112000101FF0EC0
:1010C000E3CFF4F1090EF56FD8900F016AEF08F045
:1010D0000101F4330F01D8A08198D8B0818815ECB4
:1010E00004F00101F52F68EF08F00F01818815EC7D
:0410F00004F01200F6
:0C10F400D9CFE6FFDACFE6FFE1CFD9FF4D
:10110000E2CFDAFFE652E652DF6AFB0EDB50DF5C2D
:1011100016E23DEC08F0E76E010EE7CFDBFFFC0EB8
:10112000DBCFE9FFFD0EDBCFEAFF010EDBCFEFFFE8
:10113000FC0EDB2AFD0E01E3DB2ADF2AE6D7E552AF
:0E114000E552E552E5CFDAFFE7CFD9FF120006
:02114E00D9CFF7
:10115000E6FFDACFE6FFE1CFD9FFE2CFDAFFFC0E00
:10116000DBCFE9FFFD0EDBCFEAFFEF50E66E5EEC72
:1011700008F0E552FC0EDBCFE9FFDB2AFD0EDBCFEA
:10118000EAFF01E3DB2AEF50EAE1E552E5CFDAFFBF
:06119000E7CFD9FF1200B9
:0A119600FE0EE3CFE9FFFF0EE3CFEA
:1011A000EAFFE9CFF3FFEACFF4FFFB0EE35003E1E0
:1011B000FC0EE35009E0FB0EE30602E2FC0EE30640
:0A11C000FD0EE350EE6EF1D71200B1
:0611CA00FF0EE350076E6A
:1011D000EF0E01D0F30EE76EE72EECEF08F00C0EE9
:1011E000066EE76AE72EF2EF08F0062EF1EF08F040
:0811F000072EEAEF08F01200DF
:0811F800D9CFE6FFDACFE6FFD4
:10120000E1CFD9FFE2CFDAFFACAC04D0AC90010162
:10121000F6B3AC80FD0EDB50AD6EE552E5CFDAFFE4
:06122000E7CFD9FF120028
:0A122600000EF36E00EE00F0040E5F
:1012300001D81200EA6002D0EE6AFCD7F350E960F0
:061240001200EE6AFCD76B
:0A12460013EE00F023EE00F0F86A4A
:10125000059C54EC07F003EC04F0A3EC04F0FBD77E
:0212600012007A
:0E126200FF0EE350076E1B0E00D001D0200ED1
:0E127000E76EE72EFED7072EFAD700D0120049
:02127E00FF0E61
:10128000E350E84E1200000000D000D000D0E82E5D
:04129000FAD7120077
:00000001FF
