:020000040000FA
:060000001CEF07F01200E6
:0400180099EF05F067
:0408000099EF05F077
:0C080400010014080000D50100000100F4
:020810000000E6
:020812001200D2
:0108140000E3
:06082A00C16AB46A806A95
:10083000926A816AF00E936E826A946A948C948EA6
:10084000D08E9F8A9D8AF29EF29C808A80888086C4
:100850001200EBDFB00EE66E040EE66E3C0EE66EA6
:100860003AEC06F0E552E552E552B886F28EF28C8B
:10087000F4D8FED71200D9CFE6FFE1CFD9FF030E9F
:10088000E126DE6ADD6AA5EC06F0E76E020EE7CF30
:10089000DBFFDECFE9FFDDCFEAFF020EE926010E26
:1008A000EA22020EDBCFEFFFDF2A010E01E3DB2A93
:1008B000020EDB500A08E7E1030EE15C02E2E16AA6
:1008C000E552E16EE552E7CFD9FF1200D9CFE6FF3E
:1008D000E1CFD9FF020EE126DE68DD68DF2A010ED6
:1008E00001E3DB2ADECFE9FFDDCFEAFF020EE926D6
:1008F000010EEA22EF50E66EF5EC06F0E552ACA2EE
:10090000FED7DECFE9FFDDCFEAFF020EE926010EBA
:10091000EA22EF50E3E1020EE15C02E2E16AE55215
:10092000E16EE552E7CFD9FF1200D9CFE6FFE1CF64
:10093000D9FF340EE126D9CFE9FFDACFEAFF480E1E
:10094000EE6E610EEE6E6C0EEE6EEE6E6F0EEE6E75
:100950002C0EEE6E200EEE6E640EEE6E690EEE6ED6
:10096000740EEE6E200EEE6E690EEE6E730EEE6E6F
:10097000200EEE6E650EEE6EEE6E6E0EEE6E200EBC
:10098000EE6E740EEE6E650EEE6E730EEE6E740EFF
:10099000EE6EEE6AEE6AEE6AEE6AEE6AEE6AEE6A93
:1009A000EE6AEE6AEE6AEE6AEE6AEE6AEE6AEE6A87
:1009B000EE6AEE6AEE6AEE6AEE6AEE6AEE6AEE6A77
:1009C000EE6AEE6AEE6AEE6AEE6A320EDB6A330EA9
:1009D000DB6AD9CF02F0DACF03F0320EDB5002240B
:1009E000E96E330EDB500320EA6EEF50E66EF5EC55
:1009F00006F0E552320EDB2A330E01E3DB2AACA20D
:100A0000FED7D9CF02F0DACF03F0320EDB5002244A
:100A1000E96E330EDB500320EA6EEF50DAE1E66850
:100A2000DEEC06F0E552E668DEEC06F0E552E6683C
:100A3000DEEC06F0E552E668DEEC06F0E552E6682C
:100A4000DEEC06F0E552340EE15C02E2E16AE552CA
:100A5000E16EE552E7CFD9FF1200D9CFE6FFE1CF33
:100A6000D9FF670EE126030EF36E640EF3CFDBFFB2
:100A7000650EDB6A240EDF6EDE52300EDD6E310E47
:100A8000F36E020EF3CFDBFF640EDBCF02F0650ED8
:100A9000DBCF03F0D890035004E6640E025C000E36
:100AA00003583AE29EAAFED7A5EC06F0E76E660E62
:100AB000E7CFDBFFD9CF02F0DACF03F0640EDB50D3
:100AC0000224E96E650EDB500320EA6E660EDBCF72
:100AD000EFFFDB500A081AE1D9CFE6FFDACFE6FFD5
:100AE0007FEC06F0E552E552640EE66EE66AD9CF79
:100AF000E6FFDACFE6FFC4EC06F0E552E552E55238
:100B0000E552640EDB6A650EDB6A06D0640EDB2AF2
:100B1000650E01E3DB2AB8D7670EE15C02E2E16A09
:0C0B2000E552E16EE552E7CFD9FF12006C
:040B2C001CEF07F0C3
:100B30001200DACFE4FFE2CFDAFFE9CFE4FFEACF39
:100B4000E4FFF6CFE4FFF7CFE4FFF5CFE4FFF3CF08
:100B5000E4FFF4CFE4FFFACFE4FF00EE00F0020E72
:100B6000E80403E3EECFE4FFFBD700EE02F0020E51
:100B7000E80403E3EECFE4FFFBD7E652F29E9E9A31
:100B80003BEC04F066EC04F09D8AF28CF28EE552A8
:100B900000EE03F0020EE80403E3E5CFEDFFFBD720
:100BA00000EE01F0020EE80403E3E5CFEDFFFBD712
:100BB000E5CFFAFFE5CFF4FFE5CFF3FFE5CFF5FF93
:100BC000E5CFF7FFE5CFF6FFE5CFEAFFE5CFE9FF99
:060BD000E5CFDAFF110081
:0A0BD600040EF66E080EF76E000E16
:100BE000F86E01010900F550CF6F0900F550D06F84
:100BF00003E1CF6701D03DD00900F550CA6F09006D
:100C0000F550CB6F0900F550CC6F09000900F55085
:100C1000E96E0900F550EA6E090009000900F55077
:100C2000CD6F0900F550CE6F09000900F6CFD1F164
:100C3000F7CFD2F1F8CFD3F1CAC1F6FFCBC1F7FF9E
:100C4000CCC1F8FF0101CD5302E1CE5307E009000A
:100C5000F550EE6ECD07F8E2CE07F9D7D1C1F6FF19
:100C6000D2C1F7FFD3C1F8FF0101CF07000ED05B5F
:040C7000BFD71200D8
:0C0C7400D9CFE6FFDACFE6FFE1CFD9FFD1
:100C8000E2CFDAFFAC6AAB6AFD0EDBB0AC88DBA268
:100C900002D0AC8CAB8CDBB4AC8EDBA602D0AB88C4
:100CA00001D0AB8ADBB8AC849E98DBBAAB86DBACF8
:100CB00002D09D8A01D09D9A9E9ADBAE02D09D887B
:100CC00001D09D98FB0EDB50AF6EFB0EFC0EDBCF10
:100CD00003F003C002F0036A0250B06EAC8AAB8E20
:100CE000949C948EAC50100B04E0AC50800B01E14E
:0E0CF000948CE552E5CFDAFFE7CFD9FF120072
:020CFE00D9CF4C
:100D0000E6FFDACFE6FFE1CFD9FFE2CFDAFFACA210
:100D1000FED7FC0EDBCFE9FFFD0EDBCFEAFFEF5085
:100D2000E66EF5EC06F0E552FC0EDBCFE9FFDB2AC0
:100D3000FD0EDBCFEAFF01E3DB2AEF50E8E1E552ED
:0A0D4000E5CFDAFFE7CFD9FF12007C
:060D4A00D9CFE6FFDACF6D
:100D5000E6FFE1CFD9FFE2CFDAFFE652F20E010162
:100D6000D417ABAC03D0D491ABB0D481ABB4D485A1
:100D7000ABB2D487AE50DF6EDF50E552E552E5CF1F
:080D8000DAFFE7CFD9FF1200F2
:080D8800FE0EE3CFE9FFFF0EB0
:100D9000E3CFEAFFE9CFF3FFEACFF4FFFB0EE35026
:100DA00003E1FC0EE35009E0FB0EE30602E2FC0E59
:0C0DB000E306FD0EE350EE6EF1D71200DA
:040DBC00FF0EE350F3
:100DC000056EEF0E01D0F30EE76EE72EE5EF06F0AD
:100DD0000C0E046EE76AE72EEBEF06F0042EEAEF46
:0A0DE00006F0052EE3EF06F0120006
:060DEA00D9CFE6FFDACFCD
:100DF000E6FFE1CFD9FFE2CFDAFFACAC04D0AC9094
:100E00000101D4B3AC80FD0EDB50AD6EE552E5CFF1
:080E1000DAFFE7CFD9FF120061
:080E1800000EF36E00EE00F085
:100E2000040E01D81200EA6002D0EE6AFCD7F3503B
:080E3000E9601200EE6AFCD734
:080E380013EE00F023EE00F0C0
:100E4000F86A019CEBEC05F009EC04F029EC04F0E5
:040E5000FBD71200BA
:020000040030CA
:010003001EDE
:00000001FF
