:020000040000FA
:0600000056EF08F01200AB
:040018006BEF06F094
:040800006BEF06F0A4
:0C0804000100E4100000D701000001001A
:020810000000E6
:0E081200FF0EE350E84E1200000000D000D0B0
:0808200000D0E82EFAD7120007
:020828001200BC
:06082A00C16AB46A806A95
:10083000926A816AF00E936E826A946A948C948EA6
:10084000D08E9F8A9D8AF29EF29C808A80888086C4
:1008500012000C0EE66E64EC08F0E552030EE66E34
:1008600009EC04F0E5520000000000000000000068
:100870000000000000001200060EE66E64EC08F0B6
:10088000E552010EE66E09EC04F0E55200000000AE
:10089000000000000000000012000C0EE66E64EC88
:1008A00008F0E552030EE66E09EC04F0E552000094
:1008B000000000000000000000001200B6DF51EC54
:1008C00007F0B00EE66E040EE66E3C0EE66E0CEC23
:1008D00007F0E552E552E552B886F28EF28C87D8E1
:1008E000FED71200D9CFE6FFE1CFD9FF030EE126F4
:1008F000DE6ADD6ADFEC07F0E76E020EE7CFDBFFB2
:10090000DECFE9FFDDCFEAFF020EE926010EEA2283
:10091000020EDBCFEFFFDF2A010E01E3DB2A020E1E
:10092000DB500A08E7E1030EE15C02E2E16AE5520E
:10093000E16EE552E7CFD9FF1200D9CFE6FFE1CF54
:10094000D9FF020EE126DE68DD68DF2A010E01E331
:10095000DB2ADECFE9FFDDCFEAFF020EE926010E3A
:10096000EA22EF50E66E2FEC08F0E552ACA2FED77B
:10097000DECFE9FFDDCFEAFF020EE926010EEA2213
:10098000EF50E3E1020EE15C02E2E16AE552E16E62
:10099000E552E7CFD9FF1200D9CFE6FFE1CFD9FF6B
:1009A000030EE126DE6ADD6ADFEC07F0E76E020E79
:1009B000E7CFDBFFDECFE9FFDDCFEAFF020EE9265E
:1009C000010EEA22020EDBCFEFFFDF2A010E01E368
:1009D000DB2A020EDB500A08E7E1030EE15C02E2CB
:1009E000E16AE552E16EE552E7CFD9FF1200D9CFB7
:1009F000E6FFE1CFD9FF670EE126030EF36E640E2A
:100A0000F3CFDBFF650EDB6A610EF36E660EF3CF8C
:100A1000DBFF240EDF6EDE52300EDD6E310EF36E24
:100A2000020EF3CFDBFF640EDBCF02F0650EDBCFEF
:100A300003F0D890035004E6640E025C000E0358E5
:100A40003BE281BAFED758EC07F0E76E660EE7CFBF
:100A5000DBFFD9CF02F0DACF03F0640EDB500224C3
:100A6000E96E650EDB500320EA6E660EDBCFEFFF0A
:100A7000DB500A081BE1D9CFE6FFDACFE6FFBBEC7B
:100A800007F0E552E552640EE66EE66AE66AD9CFF3
:100A9000E6FFDACFE6FFFEEC07F0026E050EE15E40
:100AA0000250640EDB6A650EDB6A06D0640EDB2A38
:100AB000650E01E3DB2AB7D7670EE15C02E2E16A6B
:100AC000E552E16EE552E7CFD9FF1200D9CFE6FF3C
:100AD000E1CFD9FF340EE126D9CFE9FFDACFEAFF23
:100AE000480EEE6E610EEE6E6C0EEE6EEE6E6F0EDA
:100AF000EE6E2C0EEE6E200EEE6E640EEE6E690E35
:100B0000EE6E740EEE6E200EEE6E690EEE6E730ECD
:100B1000EE6E200EEE6E650EEE6EEE6E6E0EEE6EEC
:100B2000200EEE6E740EEE6E650EEE6E730EEE6EB1
:100B3000740EEE6EEE6AEE6AEE6AEE6AEE6AEE6AC7
:100B4000EE6AEE6AEE6AEE6AEE6AEE6AEE6AEE6AE5
:100B5000EE6AEE6AEE6AEE6AEE6AEE6AEE6AEE6AD5
:100B6000EE6AEE6AEE6AEE6AEE6AEE6A320EDB6AF0
:100B7000330EDB6AD9CF02F0DACF03F0320EDB504E
:100B80000224E96E330EDB500320EA6EEF50E66E6E
:100B90002FEC08F0E552320EDB2A330E01E3DB2A9C
:100BA000ACA2FED7D9CF02F0DACF03F0320EDB5081
:100BB0000224E96E330EDB500320EA6EEF50DAE1D7
:100BC000E66818EC08F0E552E66818EC08F0E55223
:100BD000E66818EC08F0E552E66818EC08F0E55213
:100BE000E66818EC08F0E552340EE15C02E2E16AD6
:100BF000E552E16EE552E7CFD9FF1200D9CFE6FF0B
:100C0000E1CFD9FF670EE126030EF36E640EF3CF3A
:100C1000DBFF650EDB6A240EDF6EDE52300EDD6E0A
:100C2000310EF36E020EF3CFDBFF640EDBCF02F06A
:100C3000650EDBCF03F0D890035004E6640E025C2F
:100C4000000E03583BE29EAAFED7DFEC07F0E76EEA
:100C5000660EE7CFDBFFD9CF02F0DACF03F0640EE8
:100C6000DB500224E96E650EDB500320EA6E660E4F
:100C7000DBCFEFFFDB500A081BE1D9CFE6FFDACF6D
:100C8000E6FF95EC07F0E552E552640EE66EE66A83
:100C9000E66AD9CFE6FFDACFE6FFFEEC07F0026E98
:100CA000050EE15E0250640EDB6A650EDB6A06D05B
:100CB000640EDB2A650E01E3DB2AB7D7670EE15C21
:100CC00002E2E16AE552E16EE552E7CFD9FF120098
:100CD00056EF08F01200DACFE4FFE2CFDAFFE9CFF7
:100CE000E4FFEACFE4FFF6CFE4FFF7CFE4FFF5CF70
:100CF000E4FFF3CFE4FFF4CFE4FFFACFE4FF00EE2C
:100D000000F0020EE80403E3EECFE4FFFBD700EEB1
:100D100002F0020EE80403E3EECFE4FFFBD7E65255
:100D2000F29E9E9A72EC04F09DEC04F09D8AF28C87
:100D3000F28EE55200EE03F0020EE80403E3E5CF85
:100D4000EDFFFBD700EE01F0020EE80403E3E5CF70
:100D5000EDFFFBD7E5CFFAFFE5CFF4FFE5CFF3FFDB
:100D6000E5CFF5FFE5CFF7FFE5CFF6FFE5CFEAFFEB
:0A0D7000E5CFE9FFE5CFDAFF11003F
:060D7A00040EF66E080EE7
:100D8000F76E000EF86E01010900F550CF6F0900F3
:100D9000F550D06F03E1CF6701D03DD00900F55089
:100DA000CA6F0900F550CB6F0900F550CC6F0900F0
:100DB0000900F550E96E0900F550EA6E09000900D6
:100DC0000900F550CD6F0900F550CE6F09000900FC
:100DD000F6CFD1F1F7CFD2F1F8CFD3F1CAC1F6FFF8
:100DE000CBC1F7FFCCC1F8FF0101CD5302E1CE53D7
:100DF00007E00900F550EE6ECD07F8E2CE07F9D70F
:100E0000D1C1F6FFD2C1F7FFD3C1F8FF0101CF076F
:080E1000000ED05BBFD71200F9
:080E1800D9CFE6FFDACFE6FFB7
:100E2000E1CFD9FFE2CFDAFFAC6AAB6AFD0EDBB0EF
:100E3000AC88DBA202D0AC8CAB8CDBB4AC8EDBA676
:100E400002D0AB8801D0AB8ADBB8AC849E98DBBA09
:100E5000AB86DBAC02D09D8A01D09D9A9E9ADBAE18
:100E600002D09D8801D09D98FB0EDB50AF6EFB0E2B
:100E7000FC0EDBCF03F003C002F0036A0250B06E39
:100E8000AC8AAB8E949C948EAC50100B04E0AC50AA
:100E9000800B01E1948CE552E5CFDAFFE7CFD9FF73
:020EA00012003E
:0E0EA2000F01939881880F01938A818A1200B4
:100EB0000101080ED56F0F0181BA5CEF07F03CEC21
:100EC00004F00F0181BA5CEF07F04DEC04F00F0164
:100ED00081AAD89081BAD8800101D433D52F65EF8B
:100EE00007F04DEC04F03CEC04F000000101D4519B
:100EF00012000101FF0EE3CFD4F1090ED56FD89097
:100F00000F0185EF07F00101D4330F01D8A08198BC
:100F1000D8B0818829EC04F00101D52F83EF07F0C8
:0A0F20000F01818829EC04F0120093
:060F2A00D9CFE6FFDACF8B
:100F3000E6FFE1CFD9FFE2CFDAFFACA2FED7FC0E8D
:100F4000DBCFE9FFFD0EDBCFEAFFEF50E66E2FECC3
:100F500008F0E552FC0EDBCFE9FFDB2AFD0EDBCF0C
:100F6000EAFF01E3DB2AEF50E8E1E552E5CFDAFFE3
:060F7000E7CFD9FF1200DB
:0A0F7600D9CFE6FFDACFE6FFE1CFA6
:100F8000D9FFE2CFDAFFFC0EDBCFE9FFFD0EDBCFAE
:100F9000EAFFEF50E66E79EC07F0E552FC0EDBCF8E
:100FA000E9FFDB2AFD0EDBCFEAFF01E3DB2AEF508E
:0E0FB000EAE1E552E5CFDAFFE7CFD9FF120004
:020FBE00D9CF89
:100FC000E6FFDACFE6FFE1CFD9FFE2CFDAFFE65264
:100FD000F20E0101D617ABAC03D0D691ABB0D681DF
:100FE000ABB4D685ABB2D687AE50DF6EDF50E552DC
:0C0FF000E552E5CFDAFFE7CFD9FF120091
:040FFC00FE0EE3CF33
:10100000E9FFFF0EE3CFEAFFE9CFF3FFEACFF4FFFA
:10101000FB0EE35003E1FC0EE35009E0FB0EE30698
:1010200002E2FC0EE306FD0EE350EE6EF1D7120075
:10103000FF0EE350056EEF0E01D0F30EE76EE72EC4
:101040001FEF08F00C0E046EE76AE72E25EF08F09C
:0E105000042E24EF08F0052E1DEF08F012000C
:02105E00D9CFE8
:10106000E6FFDACFE6FFE1CFD9FFE2CFDAFFACACA3
:1010700004D0AC900101D6B3AC80FD0EDB50AD6E58
:0C108000E552E5CFDAFFE7CFD9FF120000
:04108C00000EF36EF1
:1010900000EE00F0040E01D81200EA6002D0EE6A01
:0C10A000FCD7F350E9601200EE6AFCD7A8
:0410AC0013EE00F04F
:1010B00023EE00F0F86A019CBDEC06F014EC04F09D
:0810C0005EEC04F0FBD7120006
:0810C800FF0EE350056E1B0E44
:1010D00000D001D0200EE76EE72EFED7052EFAD7FE
:0410E00000D012002A
:0110E400000B
:020000040030CA
:010003001EDE
:00000001FF
