:020000040000FA
:0600000041EF0AF01200BE
:0608000041EF0AF01200B6
:020806001200DE
:04080800CAEF08F03B
:01080C0000EB
:04081800CAEF08F02B
:04081C0001000C08C3
:0A0820000000F201000001000000DA
:06082A002447504753561D
:100830002C332C322C31312C33322C32372C3038B3
:10084000382C31392C31372C32362C3233392C318B
:10085000362C31302C32302C3237362C2C33312C94
:1008600031392C3033382C32312A374200002447BA
:10087000504753562C332C312C31312C32332C37FA
:10088000392C3133362C32342C31332C35392C324F
:1008900030322C32322C32302C35332C3039342C4F
:1008A00032332C30342C34362C3239372C31372A31
:1008B000374300002447504747412C303931353108
:1008C000352E3030302C353035382E343337382C07
:1008D0004E2C30303530352E363837392C452C31CA
:1008E0002C382C312E30312C32312E392C4D2C34E9
:1008F000372E342C4D2C2C2A3630000024475052F1
:100900004D432C3039313531342E3030302C412CA0
:10091000353035382E343337362C4E2C3030353098
:10092000352E363838312C452C302E35382C333096
:10093000322E33362C3137303331332C2C2C412AA4
:10094000363100002447504753562C332C322C317B
:10095000312C33322C32372C3038382C32302C3189
:10096000372C32362C3233392C31362C31302C3274
:10097000302C3237362C2C33312C31392C30333863
:100980002C32312A373100002447504753562C333C
:100990002C312C31312C32332C37392C3133362C4D
:1009A00032342C31332C35392C3230322C32322C3B
:1009B00032302C35332C3039342C32332C30342C2B
:1009C00034362C3239372C31382A3733000024475B
:1009D000504753412C412C332C33322C30312C33A3
:1009E000312C31332C31372C32332C30342C323003
:1009F0002C2C2C2C2C312E33302C312E30302C3012
:100A00002E38332A304200002447504747412C30CB
:100A100039313531342E3030302C353035382E34B4
:100A20003337362C4E2C30303530352E3638383181
:100A30002C452C312C382C312E30302C32312E39A3
:100A40002C4D2C34372E342C4D2C2C2A36390000CA
:100A5000244750524D432C3039313531332E30300C
:100A6000302C412C353035382E343337362C4E2C43
:100A700030303530352E363838332C452C302E3347
:100A8000392C3330322E33362C3137303331332C4E
:100A90002C2C412A363300002447504753562C3320
:100AA0002C332C31312C30312C31372C3134392C42
:100AB00032312C30322C31302C3331342C2C323535
:100AC0002C30322C3335332C2A3434000024475058
:100AD0004753562C332C322C31312C33322C3237B5
:100AE0002C3038382C32302C31372C32362C3233F3
:100AF000392C31362C31302C32302C3237362C2CEC
:100B000033312C31392C3033382C32302A37300005
:100B1000002447504753562C332C312C31312C3282
:100B2000332C37392C3133362C32342C31332C35AD
:100B3000392C3230322C32312C32302C35332C30AF
:100B400039342C32322C30342C34362C3239372C88
:100B500031382A373100002447504753412C412C6B
:100B6000332C33322C30312C33312C31332C313780
:100B70002C32332C30342C32302C2C2C2C2C312E8B
:100B800033302C312E30312C302E38332A30410086
:100B9000002447504747412C3039313531332E300E
:100BA00030302C353035382E343337362C4E2C300F
:100BB000303530352E363838332C452C312C382C06
:100BC000312E30312C32312E392C4D2C34372E34FD
:100BD0002C4D2C2C2A36440000244750524D432CD7
:100BE0003039313531322E3030302C412C353035E2
:100BF000382E343337362C4E2C30303530352E36B7
:100C00003838342C452C302E34332C3330322E33BC
:100C1000362C3137303331332C2C2C412A363800E6
:100C2000002447504753562C332C332C31322C3070
:100C3000312C31372C3134392C32322C30322C31AA
:100C4000302C3331342C2C32352C30322C3335339C
:100C50002C2C34312C2C2C2A3431000024475047C2
:100C600053562C332C322C31322C33322C32372C3D
:100C70003038382C32312C31372C32362C32333953
:100C80002C31342C31302C32302C3237362C2C3362
:100C9000312C31392C3033382C32312A37310000A5
:100CA0000C0EE66E4FEC0AF0E552030EE66E5DECBC
:100CB0000AF0E55200000000000000000000000003
:100CC000000000001200060EE66E4FEC0AF0E5523E
:100CD000010EE66E5DEC0AF0E55200000000000037
:100CE00000000000000012000C0EE66E4FEC0AF04F
:100CF000E552030EE66E5DEC0AF0E55200000000DE
:100D000000000000000000001200C16AB46A806A9E
:100D1000926A816AF00E936E826A946A948C948EC1
:100D20008282D08E9F8A9E9A9D8AF29EF29C808AB1
:100D3000808880861200D9CFE6FFE1CFD9FF040E6C
:100D4000E126DE6ADD6ADE6ADD6ADECF00F0DDCF35
:100D500001F0020EDBCF02F0030EDBCF03F00150F7
:100D60000318E8AE02D0033404D00250005C0350F4
:100D700001581DE2DECF00F0DDCF01F0050E0102CB
:100D8000F3CF01F00002F3CF00F0F4500126CA0EB9
:100D90000026010E012200C0E6FF01C0E6FF78D860
:100DA000E552E552DF2A010E01E3DB2ACED7040E1D
:100DB000E15C02E2E16AE552E16EE552E7CFD9FF7C
:100DC0001200A3DFA7EC09F0B00EE66E040EE66E8B
:100DD0007C0EE66E18EC09F0E552E552E552B88655
:100DE000F28EF28C00D9FED71200D9CFE6FFE1CF08
:100DF000D9FF030EE126DE6ADD6ACAEC09F0E76E70
:100E0000020EE7CFDBFFDECFE9FFDDCFEAFF020E08
:100E1000E926010EEA22020EDBCFEFFFDF2A010EE8
:100E200001E3DB2A020EDB500A08E7E1030EE15C76
:100E300002E2E16AE552E16EE552E7CFD9FF120026
:100E4000D9CFE6FFE1CFD9FF020EE126DE68DD68EB
:100E5000DF2A010E01E3DB2A020EE66E010EE66ECA
:100E600083EC09F0E552E552DECFE9FFDDCFEAFF82
:100E7000020EE926010EEA22EF50EAE1020EE15CE1
:100E800002E2E16AE552E16EE552E7CFD9FF1200D6
:100E9000D9CFE6FFE1CFD9FF640EE126D950FD0F8F
:100EA000E66EFF0EDA20E66E5DEC09F0E552E552E3
:100EB000640EE66EE66AE66AD9CFE6FFDACFE6FFB1
:100EC000E9EC09F0006E050EE15E0050640EE15C95
:100ED00002E2E16AE552E16EE552E7CFD9FF120086
:100EE000D9CFE6FFE1CFD9FF020EE126DE6ADD6A47
:100EF000E3C1F6FFE4C1F7FF0800F550E66E1AEC17
:100F00000AF0E552ACA2FED70101E3C100F0E4C152
:100F100001F0E32B000EE42300500110E9E1E66844
:100F200003EC0AF0E552E66803EC0AF0E552E668E5
:100F300003EC0AF0E552E66803EC0AF0E552E668D5
:100F400003EC0AF0E552020EE15C02E2E16AE552CE
:100F5000E16EE552E7CFD9FF1200D9CFE6FFE1CF2E
:100F6000D9FF670EE126030EF36E640EF3CFDBFFAD
:100F7000650EDB6A240EDF6EDE52300EDD6E310E42
:100F8000F36E020EF3CFDBFF640EDBCF00F0650ED5
:100F9000DBCF01F0D890015004E6640E005C000E37
:100FA000015816E29EAAFED79E50200B02E0808ACE
:100FB00001D0809A660EAECFDBFFDBCFE6FF1AECE6
:100FC0000AF0E552640EDB2A650E01E3DB2ADCD76A
:100FD0009E9A670EE15C02E2E16AE552E16EE5523B
:100FE000E7CFD9FF1200D9CFE6FFE1CFD9FF640EDA
:100FF000E12601015C0EE36F0C0EE46F71DF01016D
:10100000210EE36F0C0EE46F6BDF0101D90EE36F6D
:101010000B0EE46F65DF0101910EE36F0B0EE46FC1
:101020005FDF0101570EE36F0B0EE46F59DF010123
:10103000110EE36F0B0EE46F53DF0101CD0EE36F72
:101040000A0EE46F4DDF0101980EE36F0A0EE46FA4
:1010500047DF0101500EE36F0A0EE46F41DF01012B
:10106000080EE36F0A0EE46F3BDF0101CE0EE36F63
:10107000090EE46F35DF0101880EE36F090EE46F9E
:101080002FDF0101440EE36F090EE46F29DF010138
:10109000980EE36F0A0EE46F23DF0101FC0EE36F8D
:1010A000080EE46F1DDF0101B40EE36F080EE46F5C
:1010B00017DF0101570EE36F0B0EE46F11DF010123
:1010C0006E0EE36F080EE46F0BDF01012A0EE36F73
:1010D000080EE46F05DF0101980EE36F0A0EE46F5E
:1010E000FFDE640EE15C02E2E16AE552E16EE55288
:0610F000E7CFD9FF12005A
:0A10F6001C0EF66E080EF76E000ED9
:10110000F86E01010900F550EA6F0900F550EB6F28
:1011100003E1EA6701D03DD00900F550E56F090011
:10112000F550E66F0900F550E76F09000900F5502A
:10113000E96E0900F550EA6E090009000900F55052
:10114000E86F0900F550E96F09000900F6CFECF1EE
:10115000F7CFEDF1F8CFEEF1E5C1F6FFE6C1F7FF0D
:10116000E7C1F8FF0101E85302E1E95307E0090094
:10117000F550EE6EE807F8E2E907F9D7ECC1F6FFA3
:10118000EDC1F7FFEEC1F8FF0101EA07000EEB5BCE
:04119000BFD71200B3
:0C119400DACFE4FFE2CFDAFFE9CFE4FF9E
:1011A000EACFE4FFF6CFE4FFF7CFE4FFF5CFE4FFAB
:1011B000F3CFE4FFF4CFE4FFFACFE4FF00EE04F056
:1011C000020EE80403E3EECFE4FFFBD700EE00F0ED
:1011D000040EE80403E3EECFE4FFFBD7E652F29EF1
:1011E000ADEC07F09E9AF28EE55200EE03F0040E8D
:1011F000E80403E3E5CFEDFFFBD700EE05F0020EB8
:10120000E80403E3E5CFEDFFFBD7E5CFFAFFE5CF39
:10121000F4FFE5CFF3FFE5CFF5FFE5CFF7FFE5CF2F
:10122000F6FFE5CFEAFFE5CFE9FFE5CFDAFF1100F2
:10123000D9CFE6FFDACFE6FFE1CFD9FFE2CFDAFF81
:10124000AC6AAB6AFD0EDBB0AC88DBA202D0AC8C22
:10125000AB8CDBB4AC8EDBA602D0AB8801D0AB8A02
:10126000DBB8AC849E98DBBAAB86DBAC02D09D8A3F
:1012700001D09D9A9E9ADBAE02D09D8801D09D98A8
:10128000FB0EDB50AF6EFB0EFC0EDBCF01F001C09E
:1012900000F0016A0050B06EAC8AAB8E949C948EC4
:1012A000AC50100B04E0AC50800B01E1948CE55283
:0A12B000E5CFDAFFE7CFD9FF120007
:0612BA00D9CFE6FFDACFF8
:1012C000E6FFE1CFD9FFE2CFDAFFACA2FED7FC0EFA
:1012D000DBCFE9FFFD0EDBCFEAFFEF50E66E1AEC45
:1012E0000AF0E552FC0EDBCFE9FFDB2AFD0EDBCF77
:1012F000EAFF01E3DB2AEF50E8E1E552E5CFDAFF50
:06130000E7CFD9FF120047
:0A130600D9CFE6FFDACFE6FFE1CF12
:10131000D9FFE2CFDAFFFC0EDBCFE9FFFD0EDBCF1A
:10132000EAFFEF50E66EAEEC09F0E552FC0EDBCFC3
:10133000E9FFDB2AFD0EDBCFEAFF01E3DB2AEF50FA
:0E134000EAE1E552E5CFDAFFE7CFD9FF120070
:02134E000F018D
:10135000939881880F01938A818A12000101FF0E00
:10136000E3CFEFF1090EF06FD8900F01BAEF09F05B
:101370000101EF330F01D8A08198D8B0818850ECDB
:1013800006F00101F02FB8EF09F00F01818850EC51
:0413900006F0120051
:0C139400D9CFE6FFDACFE6FFE1CFD9FFAA
:1013A000E2CFDAFFE652F20E0101F117ABAC03D047
:1013B000F191ABB0F181ABB4F185ABB2F187AE5036
:1013C000DF6EDF50E552E552E5CFDAFFE7CFD9FF18
:0213D000120009
:0E13D200FE0EE3CFE9FFFF0EE3CFEAFFE9CF07
:1013E000F3FFEACFF4FFFB0EE35003E1FC0EE35002
:1013F00009E0FB0EE30602E2FC0EE306FD0EE350FD
:06140000EE6EF1D71200B0
:0A140600FF0EE350076EEF0E01D059
:10141000F30EE76EE72E0AEF0AF00C0E066EE76A8F
:10142000E72E10EF0AF0062E0FEF0AF0072E08EF56
:041430000AF01200AC
:0C143400D9CFE6FFDACFE6FFE1CFD9FF09
:10144000E2CFDAFFACAC04D0AC900101F1B3AC80D8
:10145000FD0EDB50AD6EE552E5CFDAFFE7CFD9FFE9
:02146000120078
:0E146200000EF36E00EE00F0040E01D8120032
:10147000EA6002D0EE6AFCD7F350E9601200EE6A2F
:02148000FCD797
:0E14820013EE00F023EE00F0F86A059C7BEC00
:0E14900008F003EC04F0E1EC06F0FBD71200CC
:02149E00FF0E3F
:1014A000E350076E1B0E00D001D0200EE76EE72E32
:0A14B000FED7072EFAD700D0120075
:0614BA00FF0EE350E84EB6
:1014C0001200000000D000D000D0E82EFAD71200A1
:00000001FF
